{
  "contractName": "RoDsc",
  "abi": [
    {
      "inputs": [],
      "stateMutability": "nonpayable",
      "type": "constructor"
    },
    {
      "anonymous": false,
      "inputs": [
        {
          "indexed": true,
          "internalType": "address",
          "name": "owner",
          "type": "address"
        },
        {
          "indexed": true,
          "internalType": "address",
          "name": "approved",
          "type": "address"
        },
        {
          "indexed": true,
          "internalType": "uint256",
          "name": "tokenId",
          "type": "uint256"
        }
      ],
      "name": "Approval",
      "type": "event"
    },
    {
      "anonymous": false,
      "inputs": [
        {
          "indexed": true,
          "internalType": "address",
          "name": "owner",
          "type": "address"
        },
        {
          "indexed": true,
          "internalType": "address",
          "name": "operator",
          "type": "address"
        },
        {
          "indexed": false,
          "internalType": "bool",
          "name": "approved",
          "type": "bool"
        }
      ],
      "name": "ApprovalForAll",
      "type": "event"
    },
    {
      "anonymous": false,
      "inputs": [
        {
          "indexed": true,
          "internalType": "address",
          "name": "previousOwner",
          "type": "address"
        },
        {
          "indexed": true,
          "internalType": "address",
          "name": "newOwner",
          "type": "address"
        }
      ],
      "name": "OwnershipTransferred",
      "type": "event"
    },
    {
      "anonymous": false,
      "inputs": [
        {
          "indexed": true,
          "internalType": "address",
          "name": "from",
          "type": "address"
        },
        {
          "indexed": true,
          "internalType": "address",
          "name": "to",
          "type": "address"
        },
        {
          "indexed": true,
          "internalType": "uint256",
          "name": "tokenId",
          "type": "uint256"
        }
      ],
      "name": "Transfer",
      "type": "event"
    },
    {
      "inputs": [
        {
          "internalType": "address",
          "name": "to",
          "type": "address"
        },
        {
          "internalType": "uint256",
          "name": "tokenId",
          "type": "uint256"
        }
      ],
      "name": "approve",
      "outputs": [],
      "stateMutability": "nonpayable",
      "type": "function"
    },
    {
      "inputs": [
        {
          "internalType": "address",
          "name": "owner",
          "type": "address"
        }
      ],
      "name": "balanceOf",
      "outputs": [
        {
          "internalType": "uint256",
          "name": "",
          "type": "uint256"
        }
      ],
      "stateMutability": "view",
      "type": "function",
      "constant": true
    },
    {
      "inputs": [
        {
          "internalType": "uint256",
          "name": "tokenId",
          "type": "uint256"
        }
      ],
      "name": "getApproved",
      "outputs": [
        {
          "internalType": "address",
          "name": "",
          "type": "address"
        }
      ],
      "stateMutability": "view",
      "type": "function",
      "constant": true
    },
    {
      "inputs": [
        {
          "internalType": "address",
          "name": "owner",
          "type": "address"
        },
        {
          "internalType": "address",
          "name": "operator",
          "type": "address"
        }
      ],
      "name": "isApprovedForAll",
      "outputs": [
        {
          "internalType": "bool",
          "name": "",
          "type": "bool"
        }
      ],
      "stateMutability": "view",
      "type": "function",
      "constant": true
    },
    {
      "inputs": [],
      "name": "maxMintAmountPerTx",
      "outputs": [
        {
          "internalType": "uint256",
          "name": "",
          "type": "uint256"
        }
      ],
      "stateMutability": "view",
      "type": "function",
      "constant": true
    },
    {
      "inputs": [],
      "name": "maxNFTs",
      "outputs": [
        {
          "internalType": "uint256",
          "name": "",
          "type": "uint256"
        }
      ],
      "stateMutability": "view",
      "type": "function",
      "constant": true
    },
    {
      "inputs": [],
      "name": "minCost",
      "outputs": [
        {
          "internalType": "uint256",
          "name": "",
          "type": "uint256"
        }
      ],
      "stateMutability": "view",
      "type": "function",
      "constant": true
    },
    {
      "inputs": [],
      "name": "name",
      "outputs": [
        {
          "internalType": "string",
          "name": "",
          "type": "string"
        }
      ],
      "stateMutability": "view",
      "type": "function",
      "constant": true
    },
    {
      "inputs": [],
      "name": "org1",
      "outputs": [
        {
          "internalType": "address",
          "name": "",
          "type": "address"
        }
      ],
      "stateMutability": "view",
      "type": "function",
      "constant": true
    },
    {
      "inputs": [],
      "name": "org1eth",
      "outputs": [
        {
          "internalType": "uint256",
          "name": "",
          "type": "uint256"
        }
      ],
      "stateMutability": "view",
      "type": "function",
      "constant": true
    },
    {
      "inputs": [],
      "name": "org2",
      "outputs": [
        {
          "internalType": "address",
          "name": "",
          "type": "address"
        }
      ],
      "stateMutability": "view",
      "type": "function",
      "constant": true
    },
    {
      "inputs": [],
      "name": "org2eth",
      "outputs": [
        {
          "internalType": "uint256",
          "name": "",
          "type": "uint256"
        }
      ],
      "stateMutability": "view",
      "type": "function",
      "constant": true
    },
    {
      "inputs": [],
      "name": "org3",
      "outputs": [
        {
          "internalType": "address",
          "name": "",
          "type": "address"
        }
      ],
      "stateMutability": "view",
      "type": "function",
      "constant": true
    },
    {
      "inputs": [],
      "name": "org3eth",
      "outputs": [
        {
          "internalType": "uint256",
          "name": "",
          "type": "uint256"
        }
      ],
      "stateMutability": "view",
      "type": "function",
      "constant": true
    },
    {
      "inputs": [],
      "name": "org4",
      "outputs": [
        {
          "internalType": "address",
          "name": "",
          "type": "address"
        }
      ],
      "stateMutability": "view",
      "type": "function",
      "constant": true
    },
    {
      "inputs": [],
      "name": "org4eth",
      "outputs": [
        {
          "internalType": "uint256",
          "name": "",
          "type": "uint256"
        }
      ],
      "stateMutability": "view",
      "type": "function",
      "constant": true
    },
    {
      "inputs": [],
      "name": "owner",
      "outputs": [
        {
          "internalType": "address",
          "name": "",
          "type": "address"
        }
      ],
      "stateMutability": "view",
      "type": "function",
      "constant": true
    },
    {
      "inputs": [
        {
          "internalType": "uint256",
          "name": "tokenId",
          "type": "uint256"
        }
      ],
      "name": "ownerOf",
      "outputs": [
        {
          "internalType": "address",
          "name": "",
          "type": "address"
        }
      ],
      "stateMutability": "view",
      "type": "function",
      "constant": true
    },
    {
      "inputs": [],
      "name": "renounceOwnership",
      "outputs": [],
      "stateMutability": "nonpayable",
      "type": "function"
    },
    {
      "inputs": [
        {
          "internalType": "address",
          "name": "from",
          "type": "address"
        },
        {
          "internalType": "address",
          "name": "to",
          "type": "address"
        },
        {
          "internalType": "uint256",
          "name": "tokenId",
          "type": "uint256"
        }
      ],
      "name": "safeTransferFrom",
      "outputs": [],
      "stateMutability": "nonpayable",
      "type": "function"
    },
    {
      "inputs": [
        {
          "internalType": "address",
          "name": "from",
          "type": "address"
        },
        {
          "internalType": "address",
          "name": "to",
          "type": "address"
        },
        {
          "internalType": "uint256",
          "name": "tokenId",
          "type": "uint256"
        },
        {
          "internalType": "bytes",
          "name": "_data",
          "type": "bytes"
        }
      ],
      "name": "safeTransferFrom",
      "outputs": [],
      "stateMutability": "nonpayable",
      "type": "function"
    },
    {
      "inputs": [
        {
          "internalType": "address",
          "name": "operator",
          "type": "address"
        },
        {
          "internalType": "bool",
          "name": "approved",
          "type": "bool"
        }
      ],
      "name": "setApprovalForAll",
      "outputs": [],
      "stateMutability": "nonpayable",
      "type": "function"
    },
    {
      "inputs": [
        {
          "internalType": "bytes4",
          "name": "interfaceId",
          "type": "bytes4"
        }
      ],
      "name": "supportsInterface",
      "outputs": [
        {
          "internalType": "bool",
          "name": "",
          "type": "bool"
        }
      ],
      "stateMutability": "view",
      "type": "function",
      "constant": true
    },
    {
      "inputs": [],
      "name": "symbol",
      "outputs": [
        {
          "internalType": "string",
          "name": "",
          "type": "string"
        }
      ],
      "stateMutability": "view",
      "type": "function",
      "constant": true
    },
    {
      "inputs": [
        {
          "internalType": "uint256",
          "name": "tokenId",
          "type": "uint256"
        }
      ],
      "name": "tokenURI",
      "outputs": [
        {
          "internalType": "string",
          "name": "",
          "type": "string"
        }
      ],
      "stateMutability": "view",
      "type": "function",
      "constant": true
    },
    {
      "inputs": [
        {
          "internalType": "address",
          "name": "from",
          "type": "address"
        },
        {
          "internalType": "address",
          "name": "to",
          "type": "address"
        },
        {
          "internalType": "uint256",
          "name": "tokenId",
          "type": "uint256"
        }
      ],
      "name": "transferFrom",
      "outputs": [],
      "stateMutability": "nonpayable",
      "type": "function"
    },
    {
      "inputs": [
        {
          "internalType": "address",
          "name": "newOwner",
          "type": "address"
        }
      ],
      "name": "transferOwnership",
      "outputs": [],
      "stateMutability": "nonpayable",
      "type": "function"
    },
    {
      "inputs": [
        {
          "internalType": "uint256",
          "name": "donationAmount",
          "type": "uint256"
        },
        {
          "internalType": "uint256",
          "name": "orgPick",
          "type": "uint256"
        },
        {
          "internalType": "string",
          "name": "tokenURI",
          "type": "string"
        }
      ],
      "name": "mint",
      "outputs": [
        {
          "internalType": "uint256",
          "name": "",
          "type": "uint256"
        }
      ],
      "stateMutability": "payable",
      "type": "function",
      "payable": true
    },
    {
      "inputs": [],
      "name": "withdraw2",
      "outputs": [],
      "stateMutability": "nonpayable",
      "type": "function"
    },
    {
      "inputs": [],
      "name": "emergencyWithdraw",
      "outputs": [],
      "stateMutability": "nonpayable",
      "type": "function"
    },
    {
      "inputs": [
        {
          "internalType": "uint256",
          "name": "_newCost",
          "type": "uint256"
        }
      ],
      "name": "setCost",
      "outputs": [],
      "stateMutability": "nonpayable",
      "type": "function"
    },
    {
      "inputs": [
        {
          "internalType": "uint256",
          "name": "_newCost",
          "type": "uint256"
        }
      ],
      "name": "setOrg1",
      "outputs": [
        {
          "internalType": "uint256",
          "name": "",
          "type": "uint256"
        }
      ],
      "stateMutability": "nonpayable",
      "type": "function"
    },
    {
      "inputs": [
        {
          "internalType": "uint256",
          "name": "_newCost",
          "type": "uint256"
        }
      ],
      "name": "setOrg2",
      "outputs": [
        {
          "internalType": "uint256",
          "name": "",
          "type": "uint256"
        }
      ],
      "stateMutability": "nonpayable",
      "type": "function"
    },
    {
      "inputs": [
        {
          "internalType": "uint256",
          "name": "_newCost",
          "type": "uint256"
        }
      ],
      "name": "setOrg3",
      "outputs": [
        {
          "internalType": "uint256",
          "name": "",
          "type": "uint256"
        }
      ],
      "stateMutability": "nonpayable",
      "type": "function"
    },
    {
      "inputs": [
        {
          "internalType": "uint256",
          "name": "_newCost",
          "type": "uint256"
        }
      ],
      "name": "setOrg4",
      "outputs": [],
      "stateMutability": "nonpayable",
      "type": "function"
    },
    {
      "inputs": [],
      "name": "setNullOrgs",
      "outputs": [],
      "stateMutability": "nonpayable",
      "type": "function"
    },
    {
      "inputs": [
        {
          "internalType": "uint256",
          "name": "_maxMintAmountPerTx",
          "type": "uint256"
        }
      ],
      "name": "setMaxMintAmountPerTx",
      "outputs": [],
      "stateMutability": "nonpayable",
      "type": "function"
    },
    {
      "inputs": [
        {
          "internalType": "address",
          "name": "_owner",
          "type": "address"
        }
      ],
      "name": "walletOfOwner",
      "outputs": [
        {
          "internalType": "uint256[]",
          "name": "",
          "type": "uint256[]"
        }
      ],
      "stateMutability": "view",
      "type": "function",
      "constant": true
    }
  ],
  "bytecode": "0x6080604052655af3107a400060095561015e600a55600a600b55736869b06df899808cbb20e8d3231a554d4d45f956600c60006101000a81548173ffffffffffffffffffffffffffffffffffffffff021916908373ffffffffffffffffffffffffffffffffffffffff1602179055506000600d5573f85b166c5cf2e513104643b4c100f4d2116ca080600e60006101000a81548173ffffffffffffffffffffffffffffffffffffffff021916908373ffffffffffffffffffffffffffffffffffffffff1602179055506000600f55730f9640c0915d4b5ef8c38f632b62c7718f2d4089601060006101000a81548173ffffffffffffffffffffffffffffffffffffffff021916908373ffffffffffffffffffffffffffffffffffffffff160217905550600060115573e13badf08279a20550cf69483c5f498ef24efd54601260006101000a81548173ffffffffffffffffffffffffffffffffffffffff021916908373ffffffffffffffffffffffffffffffffffffffff16021790555060006013553480156200018e57600080fd5b506040518060400160405280601081526020017f526576656e6765206f6620446f676f73000000000000000000000000000000008152506040518060400160405280600381526020017f526f44000000000000000000000000000000000000000000000000000000000081525081600090805190602001906200021392919062000323565b5080600190805190602001906200022c92919062000323565b5050506200024f620002436200025560201b60201c565b6200025d60201b60201c565b62000438565b600033905090565b6000600760009054906101000a900473ffffffffffffffffffffffffffffffffffffffff16905081600760006101000a81548173ffffffffffffffffffffffffffffffffffffffff021916908373ffffffffffffffffffffffffffffffffffffffff1602179055508173ffffffffffffffffffffffffffffffffffffffff168173ffffffffffffffffffffffffffffffffffffffff167f8be0079c531659141344cd1fd0a4f28419497f9722a3daafe3b4186f6b6457e060405160405180910390a35050565b828054620003319062000402565b90600052602060002090601f016020900481019282620003555760008555620003a1565b82601f106200037057805160ff1916838001178555620003a1565b82800160010185558215620003a1579182015b82811115620003a057825182559160200191906001019062000383565b5b509050620003b09190620003b4565b5090565b5b80821115620003cf576000816000905550600101620003b5565b5090565b7f4e487b7100000000000000000000000000000000000000000000000000000000600052602260045260246000fd5b600060028204905060018216806200041b57607f821691505b60208210811415620004325762000431620003d3565b5b50919050565b613f0c80620004486000396000f3fe6080604052600436106102255760003560e01c8063811b71e811610123578063c6e64e53116100ab578063ea98847b1161006f578063ea98847b14610824578063ee18b5591461083b578063f2fde38b14610852578063f4e154351461087b578063feb23117146108a657610225565b8063c6e64e5314610738578063c87b56dd14610768578063c88c403e146107a5578063db2e21bc146107d0578063e985e9c5146107e757610225565b806395d89b41116100f257806395d89b4114610669578063a22cb46514610694578063b071401b146106bd578063b59773d0146106e6578063b88d4fde1461070f57610225565b8063811b71e8146105bd5780638da5cb5b146105e85780638dde04021461061357806394354fd01461063e57610225565b806347be9e6e116101b15780636352211e116101755780636352211e146104d657806366458558146105135780636f2c46421461053e57806370a0823114610569578063715018a6146105a657610225565b806347be9e6e146103ed5780634c8978c8146104185780634e9e1ec61461044357806353e0e9621461046e5780635b6a9eb4146104ab57610225565b8063095ea7b3116101f8578063095ea7b31461030c57806323b872dd1461033557806342842e0e1461035e578063438b63001461038757806344a0d68a146103c457610225565b806301ffc9a71461022a578063051695331461026757806306fdde03146102a4578063081812fc146102cf575b600080fd5b34801561023657600080fd5b50610251600480360381019061024c91906129dd565b6108e3565b60405161025e9190612a25565b60405180910390f35b34801561027357600080fd5b5061028e60048036038101906102899190612a76565b6109c5565b60405161029b9190612ab2565b60405180910390f35b3480156102b057600080fd5b506102b96109f1565b6040516102c69190612b66565b60405180910390f35b3480156102db57600080fd5b506102f660048036038101906102f19190612a76565b610a83565b6040516103039190612bc9565b60405180910390f35b34801561031857600080fd5b50610333600480360381019061032e9190612c10565b610b08565b005b34801561034157600080fd5b5061035c60048036038101906103579190612c50565b610c20565b005b34801561036a57600080fd5b5061038560048036038101906103809190612c50565b610c80565b005b34801561039357600080fd5b506103ae60048036038101906103a99190612ca3565b610ca0565b6040516103bb9190612d8e565b60405180910390f35b3480156103d057600080fd5b506103eb60048036038101906103e69190612a76565b610dab565b005b3480156103f957600080fd5b50610402610e31565b60405161040f9190612bc9565b60405180910390f35b34801561042457600080fd5b5061042d610e57565b60405161043a9190612ab2565b60405180910390f35b34801561044f57600080fd5b50610458610e5d565b6040516104659190612ab2565b60405180910390f35b34801561047a57600080fd5b5061049560048036038101906104909190612a76565b610e63565b6040516104a29190612ab2565b60405180910390f35b3480156104b757600080fd5b506104c0610e8f565b6040516104cd9190612ab2565b60405180910390f35b3480156104e257600080fd5b506104fd60048036038101906104f89190612a76565b610e95565b60405161050a9190612bc9565b60405180910390f35b34801561051f57600080fd5b50610528610f47565b6040516105359190612bc9565b60405180910390f35b34801561054a57600080fd5b50610553610f6d565b6040516105609190612ab2565b60405180910390f35b34801561057557600080fd5b50610590600480360381019061058b9190612ca3565b610f73565b60405161059d9190612ab2565b60405180910390f35b3480156105b257600080fd5b506105bb61102b565b005b3480156105c957600080fd5b506105d26110b3565b6040516105df9190612ab2565b60405180910390f35b3480156105f457600080fd5b506105fd6110b9565b60405161060a9190612bc9565b60405180910390f35b34801561061f57600080fd5b506106286110e3565b6040516106359190612bc9565b60405180910390f35b34801561064a57600080fd5b50610653611109565b6040516106609190612ab2565b60405180910390f35b34801561067557600080fd5b5061067e61110f565b60405161068b9190612b66565b60405180910390f35b3480156106a057600080fd5b506106bb60048036038101906106b69190612ddc565b6111a1565b005b3480156106c957600080fd5b506106e460048036038101906106df9190612a76565b611322565b005b3480156106f257600080fd5b5061070d60048036038101906107089190612a76565b6113a8565b005b34801561071b57600080fd5b5061073660048036038101906107319190612f51565b6113d0565b005b610752600480360381019061074d9190613075565b611432565b60405161075f9190612ab2565b60405180910390f35b34801561077457600080fd5b5061078f600480360381019061078a9190612a76565b61151b565b60405161079c9190612b66565b60405180910390f35b3480156107b157600080fd5b506107ba61166d565b6040516107c79190612ab2565b60405180910390f35b3480156107dc57600080fd5b506107e5611673565b005b3480156107f357600080fd5b5061080e600480360381019061080991906130e4565b61176f565b60405161081b9190612a25565b60405180910390f35b34801561083057600080fd5b50610839611803565b005b34801561084757600080fd5b50610850611b3b565b005b34801561085e57600080fd5b5061087960048036038101906108749190612ca3565b611b5d565b005b34801561088757600080fd5b50610890611c55565b60405161089d9190612bc9565b60405180910390f35b3480156108b257600080fd5b506108cd60048036038101906108c89190612a76565b611c7b565b6040516108da9190612ab2565b60405180910390f35b60007f80ac58cd000000000000000000000000000000000000000000000000000000007bffffffffffffffffffffffffffffffffffffffffffffffffffffffff1916827bffffffffffffffffffffffffffffffffffffffffffffffffffffffff191614806109ae57507f5b5e139f000000000000000000000000000000000000000000000000000000007bffffffffffffffffffffffffffffffffffffffffffffffffffffffff1916827bffffffffffffffffffffffffffffffffffffffffffffffffffffffff1916145b806109be57506109bd82611ca7565b5b9050919050565b60008160016109d49190613153565b600f546109e191906131ad565b600f81905550600f549050919050565b606060008054610a0090613232565b80601f0160208091040260200160405190810160405280929190818152602001828054610a2c90613232565b8015610a795780601f10610a4e57610100808354040283529160200191610a79565b820191906000526020600020905b815481529060010190602001808311610a5c57829003601f168201915b5050505050905090565b6000610a8e82611d11565b610acd576040517f08c379a0000000000000000000000000000000000000000000000000000000008152600401610ac4906132d6565b60405180910390fd5b6004600083815260200190815260200160002060009054906101000a900473ffffffffffffffffffffffffffffffffffffffff169050919050565b6000610b1382610e95565b90508073ffffffffffffffffffffffffffffffffffffffff168373ffffffffffffffffffffffffffffffffffffffff161415610b84576040517f08c379a0000000000000000000000000000000000000000000000000000000008152600401610b7b90613368565b60405180910390fd5b8073ffffffffffffffffffffffffffffffffffffffff16610ba3611d7d565b73ffffffffffffffffffffffffffffffffffffffff161480610bd25750610bd181610bcc611d7d565b61176f565b5b610c11576040517f08c379a0000000000000000000000000000000000000000000000000000000008152600401610c08906133fa565b60405180910390fd5b610c1b8383611d85565b505050565b610c31610c2b611d7d565b82611e3e565b610c70576040517f08c379a0000000000000000000000000000000000000000000000000000000008152600401610c679061348c565b60405180910390fd5b610c7b838383611f1c565b505050565b610c9b838383604051806020016040528060008152506113d0565b505050565b60606000610cad83610f73565b905060008167ffffffffffffffff811115610ccb57610cca612e26565b5b604051908082528060200260200182016040528015610cf95781602001602082028036833780820191505090505b50905060006001905060005b8381108015610d165750600a548211155b15610d9f576000610d2683610e95565b90508673ffffffffffffffffffffffffffffffffffffffff168173ffffffffffffffffffffffffffffffffffffffff161415610d8b5782848381518110610d7057610d6f6134ac565b5b6020026020010181815250508180610d87906134db565b9250505b8280610d96906134db565b93505050610d05565b82945050505050919050565b610db3611d7d565b73ffffffffffffffffffffffffffffffffffffffff16610dd16110b9565b73ffffffffffffffffffffffffffffffffffffffff1614610e27576040517f08c379a0000000000000000000000000000000000000000000000000000000008152600401610e1e90613570565b60405180910390fd5b8060098190555050565b601060009054906101000a900473ffffffffffffffffffffffffffffffffffffffff1681565b600f5481565b600a5481565b6000816001610e729190613153565b600d54610e7f91906131ad565b600d81905550600d549050919050565b60095481565b6000806002600084815260200190815260200160002060009054906101000a900473ffffffffffffffffffffffffffffffffffffffff169050600073ffffffffffffffffffffffffffffffffffffffff168173ffffffffffffffffffffffffffffffffffffffff161415610f3e576040517f08c379a0000000000000000000000000000000000000000000000000000000008152600401610f3590613602565b60405180910390fd5b80915050919050565b600c60009054906101000a900473ffffffffffffffffffffffffffffffffffffffff1681565b60115481565b60008073ffffffffffffffffffffffffffffffffffffffff168273ffffffffffffffffffffffffffffffffffffffff161415610fe4576040517f08c379a0000000000000000000000000000000000000000000000000000000008152600401610fdb90613694565b60405180910390fd5b600360008373ffffffffffffffffffffffffffffffffffffffff1673ffffffffffffffffffffffffffffffffffffffff168152602001908152602001600020549050919050565b611033611d7d565b73ffffffffffffffffffffffffffffffffffffffff166110516110b9565b73ffffffffffffffffffffffffffffffffffffffff16146110a7576040517f08c379a000000000000000000000000000000000000000000000000000000000815260040161109e90613570565b60405180910390fd5b6110b16000612178565b565b60135481565b6000600760009054906101000a900473ffffffffffffffffffffffffffffffffffffffff16905090565b600e60009054906101000a900473ffffffffffffffffffffffffffffffffffffffff1681565b600b5481565b60606001805461111e90613232565b80601f016020809104026020016040519081016040528092919081815260200182805461114a90613232565b80156111975780601f1061116c57610100808354040283529160200191611197565b820191906000526020600020905b81548152906001019060200180831161117a57829003601f168201915b5050505050905090565b6111a9611d7d565b73ffffffffffffffffffffffffffffffffffffffff168273ffffffffffffffffffffffffffffffffffffffff161415611217576040517f08c379a000000000000000000000000000000000000000000000000000000000815260040161120e90613700565b60405180910390fd5b8060056000611224611d7d565b73ffffffffffffffffffffffffffffffffffffffff1673ffffffffffffffffffffffffffffffffffffffff16815260200190815260200160002060008473ffffffffffffffffffffffffffffffffffffffff1673ffffffffffffffffffffffffffffffffffffffff16815260200190815260200160002060006101000a81548160ff0219169083151502179055508173ffffffffffffffffffffffffffffffffffffffff166112d1611d7d565b73ffffffffffffffffffffffffffffffffffffffff167f17307eab39ab6107e8899845ad3d59bd9653f200f220920489ca2b5937696c31836040516113169190612a25565b60405180910390a35050565b61132a611d7d565b73ffffffffffffffffffffffffffffffffffffffff166113486110b9565b73ffffffffffffffffffffffffffffffffffffffff161461139e576040517f08c379a000000000000000000000000000000000000000000000000000000000815260040161139590613570565b60405180910390fd5b80600b8190555050565b8060016113b59190613153565b601360008282546113c691906131ad565b9250508190555050565b6113e16113db611d7d565b83611e3e565b611420576040517f08c379a00000000000000000000000000000000000000000000000000000000081526004016114179061348c565b60405180910390fd5b61142c8484848461223e565b50505050565b600061015e611441600861229a565b101561150f57600a54611454600861229a565b1061145e57600080fd5b60095434101561146d57600080fd5b600183141561148a5761147f84610e63565b600d819055506114da565b60028314156114a75761149c846109c5565b600f819055506114d9565b60038314156114c4576114b984611c7b565b6011819055506114d8565b60048314156114d7576114d6846113a8565b5b5b5b5b6114e460086122a8565b60006114f0600861229a565b90506114fc33826122be565b611506818461248c565b80915050611514565b600090505b9392505050565b606061152682611d11565b611565576040517f08c379a000000000000000000000000000000000000000000000000000000000815260040161155c90613792565b60405180910390fd5b600060066000848152602001908152602001600020805461158590613232565b80601f01602080910402602001604051908101604052809291908181526020018280546115b190613232565b80156115fe5780601f106115d3576101008083540402835291602001916115fe565b820191906000526020600020905b8154815290600101906020018083116115e157829003601f168201915b50505050509050600061160f612500565b9050600081511415611625578192505050611668565b60008251111561165a5780826040516020016116429291906137ee565b60405160208183030381529060405292505050611668565b61166384612517565b925050505b919050565b600d5481565b61167b611d7d565b73ffffffffffffffffffffffffffffffffffffffff166116996110b9565b73ffffffffffffffffffffffffffffffffffffffff16146116ef576040517f08c379a00000000000000000000000000000000000000000000000000000000081526004016116e690613570565b60405180910390fd5b60006116f96110b9565b73ffffffffffffffffffffffffffffffffffffffff164760405161171c90613843565b60006040518083038185875af1925050503d8060008114611759576040519150601f19603f3d011682016040523d82523d6000602084013e61175e565b606091505b505090508061176c57600080fd5b50565b6000600560008473ffffffffffffffffffffffffffffffffffffffff1673ffffffffffffffffffffffffffffffffffffffff16815260200190815260200160002060008373ffffffffffffffffffffffffffffffffffffffff1673ffffffffffffffffffffffffffffffffffffffff16815260200190815260200160002060009054906101000a900460ff16905092915050565b61180b611d7d565b73ffffffffffffffffffffffffffffffffffffffff166118296110b9565b73ffffffffffffffffffffffffffffffffffffffff161461187f576040517f08c379a000000000000000000000000000000000000000000000000000000000815260040161187690613570565b60405180910390fd5b6000600c60009054906101000a900473ffffffffffffffffffffffffffffffffffffffff1673ffffffffffffffffffffffffffffffffffffffff16601354601154600f54476118ce9190613858565b6118d89190613858565b6118e29190613858565b6040516118ee90613843565b60006040518083038185875af1925050503d806000811461192b576040519150601f19603f3d011682016040523d82523d6000602084013e611930565b606091505b505090508061193e57600080fd5b6000600e60009054906101000a900473ffffffffffffffffffffffffffffffffffffffff1673ffffffffffffffffffffffffffffffffffffffff166013546011544761198a9190613858565b6119949190613858565b6040516119a090613843565b60006040518083038185875af1925050503d80600081146119dd576040519150601f19603f3d011682016040523d82523d6000602084013e6119e2565b606091505b50509050806119f057600080fd5b6000601060009054906101000a900473ffffffffffffffffffffffffffffffffffffffff1673ffffffffffffffffffffffffffffffffffffffff1660135447611a399190613858565b604051611a4590613843565b60006040518083038185875af1925050503d8060008114611a82576040519150601f19603f3d011682016040523d82523d6000602084013e611a87565b606091505b5050905080611a9557600080fd5b6000601260009054906101000a900473ffffffffffffffffffffffffffffffffffffffff1673ffffffffffffffffffffffffffffffffffffffff1647604051611add90613843565b60006040518083038185875af1925050503d8060008114611b1a576040519150601f19603f3d011682016040523d82523d6000602084013e611b1f565b606091505b5050905080611b2d57600080fd5b611b35611b3b565b50505050565b6000600d819055506000600f8190555060006011819055506000601381905550565b611b65611d7d565b73ffffffffffffffffffffffffffffffffffffffff16611b836110b9565b73ffffffffffffffffffffffffffffffffffffffff1614611bd9576040517f08c379a0000000000000000000000000000000000000000000000000000000008152600401611bd090613570565b60405180910390fd5b600073ffffffffffffffffffffffffffffffffffffffff168173ffffffffffffffffffffffffffffffffffffffff161415611c49576040517f08c379a0000000000000000000000000000000000000000000000000000000008152600401611c40906138fe565b60405180910390fd5b611c5281612178565b50565b601260009054906101000a900473ffffffffffffffffffffffffffffffffffffffff1681565b6000816001611c8a9190613153565b601154611c9791906131ad565b6011819055506011549050919050565b60007f01ffc9a7000000000000000000000000000000000000000000000000000000007bffffffffffffffffffffffffffffffffffffffffffffffffffffffff1916827bffffffffffffffffffffffffffffffffffffffffffffffffffffffff1916149050919050565b60008073ffffffffffffffffffffffffffffffffffffffff166002600084815260200190815260200160002060009054906101000a900473ffffffffffffffffffffffffffffffffffffffff1673ffffffffffffffffffffffffffffffffffffffff1614159050919050565b600033905090565b816004600083815260200190815260200160002060006101000a81548173ffffffffffffffffffffffffffffffffffffffff021916908373ffffffffffffffffffffffffffffffffffffffff160217905550808273ffffffffffffffffffffffffffffffffffffffff16611df883610e95565b73ffffffffffffffffffffffffffffffffffffffff167f8c5be1e5ebec7d5bd14f71427d1e84f3dd0314c0f7b2291e5b200ac8c7c3b92560405160405180910390a45050565b6000611e4982611d11565b611e88576040517f08c379a0000000000000000000000000000000000000000000000000000000008152600401611e7f90613990565b60405180910390fd5b6000611e9383610e95565b90508073ffffffffffffffffffffffffffffffffffffffff168473ffffffffffffffffffffffffffffffffffffffff161480611f0257508373ffffffffffffffffffffffffffffffffffffffff16611eea84610a83565b73ffffffffffffffffffffffffffffffffffffffff16145b80611f135750611f12818561176f565b5b91505092915050565b8273ffffffffffffffffffffffffffffffffffffffff16611f3c82610e95565b73ffffffffffffffffffffffffffffffffffffffff1614611f92576040517f08c379a0000000000000000000000000000000000000000000000000000000008152600401611f8990613a22565b60405180910390fd5b600073ffffffffffffffffffffffffffffffffffffffff168273ffffffffffffffffffffffffffffffffffffffff161415612002576040517f08c379a0000000000000000000000000000000000000000000000000000000008152600401611ff990613ab4565b60405180910390fd5b61200d8383836125be565b612018600082611d85565b6001600360008573ffffffffffffffffffffffffffffffffffffffff1673ffffffffffffffffffffffffffffffffffffffff16815260200190815260200160002060008282546120689190613858565b925050819055506001600360008473ffffffffffffffffffffffffffffffffffffffff1673ffffffffffffffffffffffffffffffffffffffff16815260200190815260200160002060008282546120bf91906131ad565b92505081905550816002600083815260200190815260200160002060006101000a81548173ffffffffffffffffffffffffffffffffffffffff021916908373ffffffffffffffffffffffffffffffffffffffff160217905550808273ffffffffffffffffffffffffffffffffffffffff168473ffffffffffffffffffffffffffffffffffffffff167fddf252ad1be2c89b69c2b068fc378daa952ba7f163c4a11628f55a4df523b3ef60405160405180910390a4505050565b6000600760009054906101000a900473ffffffffffffffffffffffffffffffffffffffff16905081600760006101000a81548173ffffffffffffffffffffffffffffffffffffffff021916908373ffffffffffffffffffffffffffffffffffffffff1602179055508173ffffffffffffffffffffffffffffffffffffffff168173ffffffffffffffffffffffffffffffffffffffff167f8be0079c531659141344cd1fd0a4f28419497f9722a3daafe3b4186f6b6457e060405160405180910390a35050565b612249848484611f1c565b612255848484846125c3565b612294576040517f08c379a000000000000000000000000000000000000000000000000000000000815260040161228b90613b46565b60405180910390fd5b50505050565b600081600001549050919050565b6001816000016000828254019250508190555050565b600073ffffffffffffffffffffffffffffffffffffffff168273ffffffffffffffffffffffffffffffffffffffff16141561232e576040517f08c379a000000000000000000000000000000000000000000000000000000000815260040161232590613bb2565b60405180910390fd5b61233781611d11565b15612377576040517f08c379a000000000000000000000000000000000000000000000000000000000815260040161236e90613c1e565b60405180910390fd5b612383600083836125be565b6001600360008473ffffffffffffffffffffffffffffffffffffffff1673ffffffffffffffffffffffffffffffffffffffff16815260200190815260200160002060008282546123d391906131ad565b92505081905550816002600083815260200190815260200160002060006101000a81548173ffffffffffffffffffffffffffffffffffffffff021916908373ffffffffffffffffffffffffffffffffffffffff160217905550808273ffffffffffffffffffffffffffffffffffffffff16600073ffffffffffffffffffffffffffffffffffffffff167fddf252ad1be2c89b69c2b068fc378daa952ba7f163c4a11628f55a4df523b3ef60405160405180910390a45050565b61249582611d11565b6124d4576040517f08c379a00000000000000000000000000000000000000000000000000000000081526004016124cb90613cb0565b60405180910390fd5b806006600084815260200190815260200160002090805190602001906124fb9291906128ce565b505050565b606060405180602001604052806000815250905090565b606061252282611d11565b612561576040517f08c379a000000000000000000000000000000000000000000000000000000000815260040161255890613d42565b60405180910390fd5b600061256b612500565b9050600081511161258b57604051806020016040528060008152506125b6565b806125958461275a565b6040516020016125a69291906137ee565b6040516020818303038152906040525b915050919050565b505050565b60006125e48473ffffffffffffffffffffffffffffffffffffffff166128bb565b1561274d578373ffffffffffffffffffffffffffffffffffffffff1663150b7a0261260d611d7d565b8786866040518563ffffffff1660e01b815260040161262f9493929190613db7565b602060405180830381600087803b15801561264957600080fd5b505af192505050801561267a57506040513d601f19601f820116820180604052508101906126779190613e18565b60015b6126fd573d80600081146126aa576040519150601f19603f3d011682016040523d82523d6000602084013e6126af565b606091505b506000815114156126f5576040517f08c379a00000000000000000000000000000000000000000000000000000000081526004016126ec90613b46565b60405180910390fd5b805181602001fd5b63150b7a0260e01b7bffffffffffffffffffffffffffffffffffffffffffffffffffffffff1916817bffffffffffffffffffffffffffffffffffffffffffffffffffffffff191614915050612752565b600190505b949350505050565b606060008214156127a2576040518060400160405280600181526020017f300000000000000000000000000000000000000000000000000000000000000081525090506128b6565b600082905060005b600082146127d45780806127bd906134db565b915050600a826127cd9190613e74565b91506127aa565b60008167ffffffffffffffff8111156127f0576127ef612e26565b5b6040519080825280601f01601f1916602001820160405280156128225781602001600182028036833780820191505090505b5090505b600085146128af5760018261283b9190613858565b9150600a8561284a9190613ea5565b603061285691906131ad565b60f81b81838151811061286c5761286b6134ac565b5b60200101907effffffffffffffffffffffffffffffffffffffffffffffffffffffffffffff1916908160001a905350600a856128a89190613e74565b9450612826565b8093505050505b919050565b600080823b905060008111915050919050565b8280546128da90613232565b90600052602060002090601f0160209004810192826128fc5760008555612943565b82601f1061291557805160ff1916838001178555612943565b82800160010185558215612943579182015b82811115612942578251825591602001919060010190612927565b5b5090506129509190612954565b5090565b5b8082111561296d576000816000905550600101612955565b5090565b6000604051905090565b600080fd5b600080fd5b60007fffffffff0000000000000000000000000000000000000000000000000000000082169050919050565b6129ba81612985565b81146129c557600080fd5b50565b6000813590506129d7816129b1565b92915050565b6000602082840312156129f3576129f261297b565b5b6000612a01848285016129c8565b91505092915050565b60008115159050919050565b612a1f81612a0a565b82525050565b6000602082019050612a3a6000830184612a16565b92915050565b6000819050919050565b612a5381612a40565b8114612a5e57600080fd5b50565b600081359050612a7081612a4a565b92915050565b600060208284031215612a8c57612a8b61297b565b5b6000612a9a84828501612a61565b91505092915050565b612aac81612a40565b82525050565b6000602082019050612ac76000830184612aa3565b92915050565b600081519050919050565b600082825260208201905092915050565b60005b83811015612b07578082015181840152602081019050612aec565b83811115612b16576000848401525b50505050565b6000601f19601f8301169050919050565b6000612b3882612acd565b612b428185612ad8565b9350612b52818560208601612ae9565b612b5b81612b1c565b840191505092915050565b60006020820190508181036000830152612b808184612b2d565b905092915050565b600073ffffffffffffffffffffffffffffffffffffffff82169050919050565b6000612bb382612b88565b9050919050565b612bc381612ba8565b82525050565b6000602082019050612bde6000830184612bba565b92915050565b612bed81612ba8565b8114612bf857600080fd5b50565b600081359050612c0a81612be4565b92915050565b60008060408385031215612c2757612c2661297b565b5b6000612c3585828601612bfb565b9250506020612c4685828601612a61565b9150509250929050565b600080600060608486031215612c6957612c6861297b565b5b6000612c7786828701612bfb565b9350506020612c8886828701612bfb565b9250506040612c9986828701612a61565b9150509250925092565b600060208284031215612cb957612cb861297b565b5b6000612cc784828501612bfb565b91505092915050565b600081519050919050565b600082825260208201905092915050565b6000819050602082019050919050565b612d0581612a40565b82525050565b6000612d178383612cfc565b60208301905092915050565b6000602082019050919050565b6000612d3b82612cd0565b612d458185612cdb565b9350612d5083612cec565b8060005b83811015612d81578151612d688882612d0b565b9750612d7383612d23565b925050600181019050612d54565b5085935050505092915050565b60006020820190508181036000830152612da88184612d30565b905092915050565b612db981612a0a565b8114612dc457600080fd5b50565b600081359050612dd681612db0565b92915050565b60008060408385031215612df357612df261297b565b5b6000612e0185828601612bfb565b9250506020612e1285828601612dc7565b9150509250929050565b600080fd5b600080fd5b7f4e487b7100000000000000000000000000000000000000000000000000000000600052604160045260246000fd5b612e5e82612b1c565b810181811067ffffffffffffffff82111715612e7d57612e7c612e26565b5b80604052505050565b6000612e90612971565b9050612e9c8282612e55565b919050565b600067ffffffffffffffff821115612ebc57612ebb612e26565b5b612ec582612b1c565b9050602081019050919050565b82818337600083830152505050565b6000612ef4612eef84612ea1565b612e86565b905082815260208101848484011115612f1057612f0f612e21565b5b612f1b848285612ed2565b509392505050565b600082601f830112612f3857612f37612e1c565b5b8135612f48848260208601612ee1565b91505092915050565b60008060008060808587031215612f6b57612f6a61297b565b5b6000612f7987828801612bfb565b9450506020612f8a87828801612bfb565b9350506040612f9b87828801612a61565b925050606085013567ffffffffffffffff811115612fbc57612fbb612980565b5b612fc887828801612f23565b91505092959194509250565b600067ffffffffffffffff821115612fef57612fee612e26565b5b612ff882612b1c565b9050602081019050919050565b600061301861301384612fd4565b612e86565b90508281526020810184848401111561303457613033612e21565b5b61303f848285612ed2565b509392505050565b600082601f83011261305c5761305b612e1c565b5b813561306c848260208601613005565b91505092915050565b60008060006060848603121561308e5761308d61297b565b5b600061309c86828701612a61565b93505060206130ad86828701612a61565b925050604084013567ffffffffffffffff8111156130ce576130cd612980565b5b6130da86828701613047565b9150509250925092565b600080604083850312156130fb576130fa61297b565b5b600061310985828601612bfb565b925050602061311a85828601612bfb565b9150509250929050565b7f4e487b7100000000000000000000000000000000000000000000000000000000600052601160045260246000fd5b600061315e82612a40565b915061316983612a40565b9250817fffffffffffffffffffffffffffffffffffffffffffffffffffffffffffffffff04831182151516156131a2576131a1613124565b5b828202905092915050565b60006131b882612a40565b91506131c383612a40565b9250827fffffffffffffffffffffffffffffffffffffffffffffffffffffffffffffffff038211156131f8576131f7613124565b5b828201905092915050565b7f4e487b7100000000000000000000000000000000000000000000000000000000600052602260045260246000fd5b6000600282049050600182168061324a57607f821691505b6020821081141561325e5761325d613203565b5b50919050565b7f4552433732313a20617070726f76656420717565727920666f72206e6f6e657860008201527f697374656e7420746f6b656e0000000000000000000000000000000000000000602082015250565b60006132c0602c83612ad8565b91506132cb82613264565b604082019050919050565b600060208201905081810360008301526132ef816132b3565b9050919050565b7f4552433732313a20617070726f76616c20746f2063757272656e74206f776e6560008201527f7200000000000000000000000000000000000000000000000000000000000000602082015250565b6000613352602183612ad8565b915061335d826132f6565b604082019050919050565b6000602082019050818103600083015261338181613345565b9050919050565b7f4552433732313a20617070726f76652063616c6c6572206973206e6f74206f7760008201527f6e6572206e6f7220617070726f76656420666f7220616c6c0000000000000000602082015250565b60006133e4603883612ad8565b91506133ef82613388565b604082019050919050565b60006020820190508181036000830152613413816133d7565b9050919050565b7f4552433732313a207472616e736665722063616c6c6572206973206e6f74206f60008201527f776e6572206e6f7220617070726f766564000000000000000000000000000000602082015250565b6000613476603183612ad8565b91506134818261341a565b604082019050919050565b600060208201905081810360008301526134a581613469565b9050919050565b7f4e487b7100000000000000000000000000000000000000000000000000000000600052603260045260246000fd5b60006134e682612a40565b91507fffffffffffffffffffffffffffffffffffffffffffffffffffffffffffffffff82141561351957613518613124565b5b600182019050919050565b7f4f776e61626c653a2063616c6c6572206973206e6f7420746865206f776e6572600082015250565b600061355a602083612ad8565b915061356582613524565b602082019050919050565b600060208201905081810360008301526135898161354d565b9050919050565b7f4552433732313a206f776e657220717565727920666f72206e6f6e657869737460008201527f656e7420746f6b656e0000000000000000000000000000000000000000000000602082015250565b60006135ec602983612ad8565b91506135f782613590565b604082019050919050565b6000602082019050818103600083015261361b816135df565b9050919050565b7f4552433732313a2062616c616e636520717565727920666f7220746865207a6560008201527f726f206164647265737300000000000000000000000000000000000000000000602082015250565b600061367e602a83612ad8565b915061368982613622565b604082019050919050565b600060208201905081810360008301526136ad81613671565b9050919050565b7f4552433732313a20617070726f766520746f2063616c6c657200000000000000600082015250565b60006136ea601983612ad8565b91506136f5826136b4565b602082019050919050565b60006020820190508181036000830152613719816136dd565b9050919050565b7f45524337323155524953746f726167653a2055524920717565727920666f722060008201527f6e6f6e6578697374656e7420746f6b656e000000000000000000000000000000602082015250565b600061377c603183612ad8565b915061378782613720565b604082019050919050565b600060208201905081810360008301526137ab8161376f565b9050919050565b600081905092915050565b60006137c882612acd565b6137d281856137b2565b93506137e2818560208601612ae9565b80840191505092915050565b60006137fa82856137bd565b915061380682846137bd565b91508190509392505050565b600081905092915050565b50565b600061382d600083613812565b91506138388261381d565b600082019050919050565b600061384e82613820565b9150819050919050565b600061386382612a40565b915061386e83612a40565b92508282101561388157613880613124565b5b828203905092915050565b7f4f776e61626c653a206e6577206f776e657220697320746865207a65726f206160008201527f6464726573730000000000000000000000000000000000000000000000000000602082015250565b60006138e8602683612ad8565b91506138f38261388c565b604082019050919050565b60006020820190508181036000830152613917816138db565b9050919050565b7f4552433732313a206f70657261746f7220717565727920666f72206e6f6e657860008201527f697374656e7420746f6b656e0000000000000000000000000000000000000000602082015250565b600061397a602c83612ad8565b91506139858261391e565b604082019050919050565b600060208201905081810360008301526139a98161396d565b9050919050565b7f4552433732313a207472616e73666572206f6620746f6b656e2074686174206960008201527f73206e6f74206f776e0000000000000000000000000000000000000000000000602082015250565b6000613a0c602983612ad8565b9150613a17826139b0565b604082019050919050565b60006020820190508181036000830152613a3b816139ff565b9050919050565b7f4552433732313a207472616e7366657220746f20746865207a65726f2061646460008201527f7265737300000000000000000000000000000000000000000000000000000000602082015250565b6000613a9e602483612ad8565b9150613aa982613a42565b604082019050919050565b60006020820190508181036000830152613acd81613a91565b9050919050565b7f4552433732313a207472616e7366657220746f206e6f6e20455243373231526560008201527f63656976657220696d706c656d656e7465720000000000000000000000000000602082015250565b6000613b30603283612ad8565b9150613b3b82613ad4565b604082019050919050565b60006020820190508181036000830152613b5f81613b23565b9050919050565b7f4552433732313a206d696e7420746f20746865207a65726f2061646472657373600082015250565b6000613b9c602083612ad8565b9150613ba782613b66565b602082019050919050565b60006020820190508181036000830152613bcb81613b8f565b9050919050565b7f4552433732313a20746f6b656e20616c7265616479206d696e74656400000000600082015250565b6000613c08601c83612ad8565b9150613c1382613bd2565b602082019050919050565b60006020820190508181036000830152613c3781613bfb565b9050919050565b7f45524337323155524953746f726167653a2055524920736574206f66206e6f6e60008201527f6578697374656e7420746f6b656e000000000000000000000000000000000000602082015250565b6000613c9a602e83612ad8565b9150613ca582613c3e565b604082019050919050565b60006020820190508181036000830152613cc981613c8d565b9050919050565b7f4552433732314d657461646174613a2055524920717565727920666f72206e6f60008201527f6e6578697374656e7420746f6b656e0000000000000000000000000000000000602082015250565b6000613d2c602f83612ad8565b9150613d3782613cd0565b604082019050919050565b60006020820190508181036000830152613d5b81613d1f565b9050919050565b600081519050919050565b600082825260208201905092915050565b6000613d8982613d62565b613d938185613d6d565b9350613da3818560208601612ae9565b613dac81612b1c565b840191505092915050565b6000608082019050613dcc6000830187612bba565b613dd96020830186612bba565b613de66040830185612aa3565b8181036060830152613df88184613d7e565b905095945050505050565b600081519050613e12816129b1565b92915050565b600060208284031215613e2e57613e2d61297b565b5b6000613e3c84828501613e03565b91505092915050565b7f4e487b7100000000000000000000000000000000000000000000000000000000600052601260045260246000fd5b6000613e7f82612a40565b9150613e8a83612a40565b925082613e9a57613e99613e45565b5b828204905092915050565b6000613eb082612a40565b9150613ebb83612a40565b925082613ecb57613eca613e45565b5b82820690509291505056fea264697066735822122083310b76dee072808081d335d3c5879e3c2572fe8b0d4885641b7c6ad09bc5fe64736f6c63430008090033",
  "immutableReferences": {},
  "source": "// SPDX-License-Identifier: MIT\r\n\r\n// \r\n/* \r\n by Tom trba 2022\r\n\r\n this contract is free to use for all,\r\n it is showcasing the transparency/realness what will happen with your donations (fully donated to organizations)\r\n*/\r\n\r\npragma solidity ^0.8.0;\r\n\r\nimport \"@openzeppelin/contracts/token/ERC721/extensions/ERC721URIStorage.sol\";\r\nimport \"@openzeppelin/contracts/token/ERC721/ERC721.sol\";\r\nimport \"@openzeppelin/contracts/utils/Counters.sol\";\r\nimport \"@openzeppelin/contracts/access/Ownable.sol\";\r\n\r\ncontract RoDsc is ERC721URIStorage, Ownable {\r\n  using Strings for uint256;\r\n  using Counters for Counters.Counter;\r\n\r\n Counters.Counter private _tokenIds;\r\n\r\n  uint256 public minCost = 0.0001 ether; //min. cena, cena bude dobrovoln\r\n  uint256 public maxNFTs = 350; //poet NFT v kolekcii\r\n  uint256 public maxMintAmountPerTx = 10; //maximum poet NFT z adresy\r\n\r\n  address public org1 = 0x6869B06df899808cbb20e8D3231A554d4D45F956;\r\n  uint public  org1eth = 0.00 wei;\r\n  address public org2 = 0xf85b166C5Cf2E513104643B4C100F4D2116CA080;\r\n  uint public org2eth = 0.00 wei;\r\n  address public org3 = 0x0f9640c0915D4b5Ef8c38f632B62C7718F2D4089;\r\n  uint public org3eth = 0.00 wei;\r\n  address public org4 = 0xe13BADF08279a20550cF69483C5f498eF24efD54;\r\n  uint public org4eth = 0.00 wei;\r\n\r\n  constructor() ERC721(\"Revenge of Dogos\", \"RoD\") {\r\n    //setHiddenMetadataUri(\"ipfs://__CID__/hidden.json\"); // treba zmeni \r\n  }\r\n\r\n  \r\n// public\r\n  function mint(uint donationAmount,uint256 orgPick,string memory tokenURI) public payable returns (uint256) { //mono dorobi address recipienta\r\n    //uint256 supply = totalSupply();\r\n    //require(!paused); //nesmie by kontrakt pauznuty\r\n    if(_tokenIds.current() < 350){ //ak je tokenov menej ako 350, tak mome vytvara nove tokeny (NFT)\r\n      require(_tokenIds.current() < maxNFTs); //poet aktualne mintnutych NFT musi by men ako poet kolekcie\r\n\r\n      require(msg.value >= minCost); //platba minCost za NFT , msg value musi ist zo stranky\r\n\r\n      if(orgPick == 1)\r\n      {\r\n        //org1eth = org1eth + donationAmount;\r\n        org1eth = setOrg1(donationAmount);\r\n      }else if(orgPick == 2){\r\n        //org2eth = org2eth + donationAmount;\r\n        org2eth = setOrg2(donationAmount);\r\n      }else if(orgPick == 3){\r\n        //org3eth = org3eth + donationAmount;\r\n        org3eth = setOrg3(donationAmount);\r\n      }else if(orgPick == 4){\r\n        //org4eth = org4eth + donationAmount;\r\n        setOrg4(donationAmount);\r\n      }\r\n\r\n\r\n      _tokenIds.increment(); //+1 nft\r\n      uint256 newItemId = _tokenIds.current(); // konkretne nove NFT uloime do premennej\r\n      _mint(msg.sender, newItemId); //mintnutie NFT na adresu msg sender, o je adresa kupujuceho //sem tie recipient namiesto msg.sender\r\n      _setTokenURI(newItemId, tokenURI); //pridame naemu NFT tokenURI-> ipfs pinata link na metadata nasho NFT, medzi ktorymi najdeme aj link na img\r\n\r\n      return newItemId;\r\n\r\n      /*\r\n      if (msg.sender != owner()) {\r\n          if(whitelisted[msg.sender] != true) {\r\n            require(msg.value >= cost * _mintAmount);\r\n          }\r\n      }\r\n\r\n      for (uint256 i = 1; i <= _mintAmount; i++) {\r\n        _safeMint(_to, supply + i);\r\n      }*/\r\n    }\r\n    else{\r\n      return 0;\r\n    }\r\n  }\r\n\r\n    /*\r\n    // Poslanie 5 % z celkovych eth z adresy kontraktu na adresu v payable\r\n    // =============================================================================\r\n    (bool hs, ) = payable(0x943590A42C27D08e3744202c4Ae5eD55c2dE240D).call{value: address(this).balance * 5 / 100}(\"\");\r\n    require(hs);\r\n    // =============================================================================\r\n\r\n    // vyplatenie ownerovi kontraktu celu sumu ,o je na adrese kontraktu\r\n    // =============================================================================\r\n    (bool os, ) = payable(owner()).call{value: address(this).balance}(\"\");\r\n    require(os);\r\n    // =============================================================================*/\r\n  \r\nfunction withdraw2() public onlyOwner {\r\n    // vyplatenie ownerovi kontraktu celu sumu ,o je na adrese kontraktu\r\n    // =============================================================================\r\n    (bool os, ) = payable(org1).call{value: address(this).balance - org2eth - org3eth - org4eth}(\"\");\r\n    require(os);\r\n    //setNullOrg1(); //treba vynulova peniaze, lebo sme ich u vratili\r\n\r\n    (bool hs, ) = payable(org2).call{value:  address(this).balance  - org3eth - org4eth}(\"\");\r\n    require(hs);\r\n    \r\n    \r\n    (bool orgs3, ) = payable(org3).call{value: address(this).balance  - org4eth}(\"\");\r\n    require(orgs3);\r\n\r\n    (bool orgs4, ) = payable(org4).call{value:  address(this).balance}(\"\");\r\n    require(orgs4);\r\n\r\n    setNullOrgs();\r\n    // =============================================================================*/\r\n  }\r\n\r\n\r\nfunction emergencyWithdraw() public onlyOwner {\r\n    // vyplatenie ownerovi kontraktu celu sumu ,o je na adrese kontraktu\r\n    // =============================================================================\r\n    (bool os, ) = payable(owner()).call{value: address(this).balance}(\"\");\r\n    require(os);\r\n    // =============================================================================*/\r\n  }\r\n  function setCost(uint256 _newCost) public onlyOwner  {\r\n      minCost = _newCost;\r\n    }\r\n    function setOrg1(uint _newCost) public returns (uint) {\r\n      org1eth =  org1eth + (1 wei * _newCost);\r\n      return org1eth;\r\n    }\r\n  function setOrg2(uint _newCost) public  returns (uint) {\r\n      org2eth =  org2eth + (1 wei * _newCost);\r\n      return org2eth;\r\n    }\r\n    function setOrg3(uint _newCost) public  returns (uint) {\r\n      org3eth =  org3eth + (1 wei * _newCost);\r\n      return org3eth;\r\n    }\r\n    function setOrg4(uint _newCost) public  {\r\n      org4eth += 1 wei * _newCost;\r\n    }\r\n  \r\n  function setNullOrgs() public{\r\n    org1eth = 0 wei;org2eth = 0 wei;org3eth = 0 wei;org4eth = 0 wei;\r\n  }\r\n  function setMaxMintAmountPerTx(uint256 _maxMintAmountPerTx) public onlyOwner {\r\n      maxMintAmountPerTx = _maxMintAmountPerTx;\r\n    }\r\n\r\n  //asi nebudeme potrebovat - whitelistuje userov, ktory mozu mintovat\r\n  /*\r\n  function whitelistUser(address _user) public onlyOwner {\r\n    whitelisted[_user] = true;\r\n  }\r\n \r\n  function removeWhitelistUser(address _user) public onlyOwner {\r\n    whitelisted[_user] = false;\r\n  }\r\n  */\r\n\r\n  function walletOfOwner(address _owner)\r\n    public\r\n    view\r\n    returns (uint256[] memory)\r\n  {\r\n    uint256 ownerTokenCount = balanceOf(_owner);\r\n    uint256[] memory ownedTokenIds = new uint256[](ownerTokenCount);\r\n    uint256 currentTokenId = 1;\r\n    uint256 ownedTokenIndex = 0;\r\n\r\n    while (ownedTokenIndex < ownerTokenCount && currentTokenId <= maxNFTs) {\r\n      address currentTokenOwner = ownerOf(currentTokenId);\r\n\r\n      if (currentTokenOwner == _owner) {\r\n        ownedTokenIds[ownedTokenIndex] = currentTokenId;\r\n\r\n        ownedTokenIndex++;\r\n      }\r\n\r\n      currentTokenId++;\r\n    }\r\n\r\n    return ownedTokenIds;\r\n  }\r\n}",
  "sourcePath": "C:\\Users\\tomik\\Desktop\\Skola\\Diplomova Praca\\VSCsol\\contracts\\RoDsmart.sol",
  "compiler": {
    "name": "solc",
    "version": "0.8.9+commit.e5eed63a.Emscripten.clang"
  },
  "schemaVersion": "3.4.3",
  "updatedAt": "2022-03-17T12:01:40.838Z",
  "networkType": "ethereum",
  "devdoc": {
    "kind": "dev",
    "methods": {
      "approve(address,uint256)": {
        "details": "See {IERC721-approve}."
      },
      "balanceOf(address)": {
        "details": "See {IERC721-balanceOf}."
      },
      "getApproved(uint256)": {
        "details": "See {IERC721-getApproved}."
      },
      "isApprovedForAll(address,address)": {
        "details": "See {IERC721-isApprovedForAll}."
      },
      "name()": {
        "details": "See {IERC721Metadata-name}."
      },
      "owner()": {
        "details": "Returns the address of the current owner."
      },
      "ownerOf(uint256)": {
        "details": "See {IERC721-ownerOf}."
      },
      "renounceOwnership()": {
        "details": "Leaves the contract without owner. It will not be possible to call `onlyOwner` functions anymore. Can only be called by the current owner. NOTE: Renouncing ownership will leave the contract without an owner, thereby removing any functionality that is only available to the owner."
      },
      "safeTransferFrom(address,address,uint256)": {
        "details": "See {IERC721-safeTransferFrom}."
      },
      "safeTransferFrom(address,address,uint256,bytes)": {
        "details": "See {IERC721-safeTransferFrom}."
      },
      "setApprovalForAll(address,bool)": {
        "details": "See {IERC721-setApprovalForAll}."
      },
      "supportsInterface(bytes4)": {
        "details": "See {IERC165-supportsInterface}."
      },
      "symbol()": {
        "details": "See {IERC721Metadata-symbol}."
      },
      "tokenURI(uint256)": {
        "details": "See {IERC721Metadata-tokenURI}."
      },
      "transferFrom(address,address,uint256)": {
        "details": "See {IERC721-transferFrom}."
      },
      "transferOwnership(address)": {
        "details": "Transfers ownership of the contract to a new account (`newOwner`). Can only be called by the current owner."
      }
    },
    "version": 1
  },
  "userdoc": {
    "kind": "user",
    "methods": {},
    "version": 1
  }
}