{
  "contractName": "RoDsc",
  "abi": [
    {
      "inputs": [],
      "stateMutability": "nonpayable",
      "type": "constructor"
    },
    {
      "anonymous": false,
      "inputs": [
        {
          "indexed": true,
          "internalType": "address",
          "name": "owner",
          "type": "address"
        },
        {
          "indexed": true,
          "internalType": "address",
          "name": "approved",
          "type": "address"
        },
        {
          "indexed": true,
          "internalType": "uint256",
          "name": "tokenId",
          "type": "uint256"
        }
      ],
      "name": "Approval",
      "type": "event"
    },
    {
      "anonymous": false,
      "inputs": [
        {
          "indexed": true,
          "internalType": "address",
          "name": "owner",
          "type": "address"
        },
        {
          "indexed": true,
          "internalType": "address",
          "name": "operator",
          "type": "address"
        },
        {
          "indexed": false,
          "internalType": "bool",
          "name": "approved",
          "type": "bool"
        }
      ],
      "name": "ApprovalForAll",
      "type": "event"
    },
    {
      "anonymous": false,
      "inputs": [
        {
          "indexed": true,
          "internalType": "address",
          "name": "previousOwner",
          "type": "address"
        },
        {
          "indexed": true,
          "internalType": "address",
          "name": "newOwner",
          "type": "address"
        }
      ],
      "name": "OwnershipTransferred",
      "type": "event"
    },
    {
      "anonymous": false,
      "inputs": [
        {
          "indexed": true,
          "internalType": "address",
          "name": "from",
          "type": "address"
        },
        {
          "indexed": true,
          "internalType": "address",
          "name": "to",
          "type": "address"
        },
        {
          "indexed": true,
          "internalType": "uint256",
          "name": "tokenId",
          "type": "uint256"
        }
      ],
      "name": "Transfer",
      "type": "event"
    },
    {
      "inputs": [
        {
          "internalType": "address",
          "name": "to",
          "type": "address"
        },
        {
          "internalType": "uint256",
          "name": "tokenId",
          "type": "uint256"
        }
      ],
      "name": "approve",
      "outputs": [],
      "stateMutability": "nonpayable",
      "type": "function"
    },
    {
      "inputs": [
        {
          "internalType": "address",
          "name": "owner",
          "type": "address"
        }
      ],
      "name": "balanceOf",
      "outputs": [
        {
          "internalType": "uint256",
          "name": "",
          "type": "uint256"
        }
      ],
      "stateMutability": "view",
      "type": "function",
      "constant": true
    },
    {
      "inputs": [],
      "name": "data",
      "outputs": [
        {
          "internalType": "string",
          "name": "",
          "type": "string"
        }
      ],
      "stateMutability": "view",
      "type": "function",
      "constant": true
    },
    {
      "inputs": [],
      "name": "gasFee",
      "outputs": [
        {
          "internalType": "uint256",
          "name": "",
          "type": "uint256"
        }
      ],
      "stateMutability": "view",
      "type": "function",
      "constant": true
    },
    {
      "inputs": [
        {
          "internalType": "uint256",
          "name": "tokenId",
          "type": "uint256"
        }
      ],
      "name": "getApproved",
      "outputs": [
        {
          "internalType": "address",
          "name": "",
          "type": "address"
        }
      ],
      "stateMutability": "view",
      "type": "function",
      "constant": true
    },
    {
      "inputs": [],
      "name": "hiddenMetadataUri",
      "outputs": [
        {
          "internalType": "string",
          "name": "",
          "type": "string"
        }
      ],
      "stateMutability": "view",
      "type": "function",
      "constant": true
    },
    {
      "inputs": [
        {
          "internalType": "address",
          "name": "owner",
          "type": "address"
        },
        {
          "internalType": "address",
          "name": "operator",
          "type": "address"
        }
      ],
      "name": "isApprovedForAll",
      "outputs": [
        {
          "internalType": "bool",
          "name": "",
          "type": "bool"
        }
      ],
      "stateMutability": "view",
      "type": "function",
      "constant": true
    },
    {
      "inputs": [],
      "name": "maxMintAmountPerTx",
      "outputs": [
        {
          "internalType": "uint256",
          "name": "",
          "type": "uint256"
        }
      ],
      "stateMutability": "view",
      "type": "function",
      "constant": true
    },
    {
      "inputs": [],
      "name": "maxNFTs",
      "outputs": [
        {
          "internalType": "uint256",
          "name": "",
          "type": "uint256"
        }
      ],
      "stateMutability": "view",
      "type": "function",
      "constant": true
    },
    {
      "inputs": [],
      "name": "minCost",
      "outputs": [
        {
          "internalType": "uint256",
          "name": "",
          "type": "uint256"
        }
      ],
      "stateMutability": "view",
      "type": "function",
      "constant": true
    },
    {
      "inputs": [],
      "name": "name",
      "outputs": [
        {
          "internalType": "string",
          "name": "",
          "type": "string"
        }
      ],
      "stateMutability": "view",
      "type": "function",
      "constant": true
    },
    {
      "inputs": [],
      "name": "org1",
      "outputs": [
        {
          "internalType": "address",
          "name": "",
          "type": "address"
        }
      ],
      "stateMutability": "view",
      "type": "function",
      "constant": true
    },
    {
      "inputs": [],
      "name": "org1eth",
      "outputs": [
        {
          "internalType": "uint256",
          "name": "",
          "type": "uint256"
        }
      ],
      "stateMutability": "view",
      "type": "function",
      "constant": true
    },
    {
      "inputs": [],
      "name": "org2",
      "outputs": [
        {
          "internalType": "address",
          "name": "",
          "type": "address"
        }
      ],
      "stateMutability": "view",
      "type": "function",
      "constant": true
    },
    {
      "inputs": [],
      "name": "org2eth",
      "outputs": [
        {
          "internalType": "uint256",
          "name": "",
          "type": "uint256"
        }
      ],
      "stateMutability": "view",
      "type": "function",
      "constant": true
    },
    {
      "inputs": [],
      "name": "org3",
      "outputs": [
        {
          "internalType": "address",
          "name": "",
          "type": "address"
        }
      ],
      "stateMutability": "view",
      "type": "function",
      "constant": true
    },
    {
      "inputs": [],
      "name": "org3eth",
      "outputs": [
        {
          "internalType": "uint256",
          "name": "",
          "type": "uint256"
        }
      ],
      "stateMutability": "view",
      "type": "function",
      "constant": true
    },
    {
      "inputs": [],
      "name": "org4",
      "outputs": [
        {
          "internalType": "address",
          "name": "",
          "type": "address"
        }
      ],
      "stateMutability": "view",
      "type": "function",
      "constant": true
    },
    {
      "inputs": [],
      "name": "org4eth",
      "outputs": [
        {
          "internalType": "uint256",
          "name": "",
          "type": "uint256"
        }
      ],
      "stateMutability": "view",
      "type": "function",
      "constant": true
    },
    {
      "inputs": [
        {
          "internalType": "uint256",
          "name": "",
          "type": "uint256"
        }
      ],
      "name": "orgAddresses",
      "outputs": [
        {
          "internalType": "address",
          "name": "",
          "type": "address"
        }
      ],
      "stateMutability": "view",
      "type": "function",
      "constant": true
    },
    {
      "inputs": [
        {
          "internalType": "uint256",
          "name": "",
          "type": "uint256"
        }
      ],
      "name": "orgEtherDonations",
      "outputs": [
        {
          "internalType": "uint256",
          "name": "",
          "type": "uint256"
        }
      ],
      "stateMutability": "view",
      "type": "function",
      "constant": true
    },
    {
      "inputs": [],
      "name": "owner",
      "outputs": [
        {
          "internalType": "address",
          "name": "",
          "type": "address"
        }
      ],
      "stateMutability": "view",
      "type": "function",
      "constant": true
    },
    {
      "inputs": [
        {
          "internalType": "uint256",
          "name": "tokenId",
          "type": "uint256"
        }
      ],
      "name": "ownerOf",
      "outputs": [
        {
          "internalType": "address",
          "name": "",
          "type": "address"
        }
      ],
      "stateMutability": "view",
      "type": "function",
      "constant": true
    },
    {
      "inputs": [],
      "name": "paused",
      "outputs": [
        {
          "internalType": "bool",
          "name": "",
          "type": "bool"
        }
      ],
      "stateMutability": "view",
      "type": "function",
      "constant": true
    },
    {
      "inputs": [],
      "name": "renounceOwnership",
      "outputs": [],
      "stateMutability": "nonpayable",
      "type": "function"
    },
    {
      "inputs": [],
      "name": "revealed",
      "outputs": [
        {
          "internalType": "bool",
          "name": "",
          "type": "bool"
        }
      ],
      "stateMutability": "view",
      "type": "function",
      "constant": true
    },
    {
      "inputs": [
        {
          "internalType": "address",
          "name": "from",
          "type": "address"
        },
        {
          "internalType": "address",
          "name": "to",
          "type": "address"
        },
        {
          "internalType": "uint256",
          "name": "tokenId",
          "type": "uint256"
        }
      ],
      "name": "safeTransferFrom",
      "outputs": [],
      "stateMutability": "nonpayable",
      "type": "function"
    },
    {
      "inputs": [
        {
          "internalType": "address",
          "name": "from",
          "type": "address"
        },
        {
          "internalType": "address",
          "name": "to",
          "type": "address"
        },
        {
          "internalType": "uint256",
          "name": "tokenId",
          "type": "uint256"
        },
        {
          "internalType": "bytes",
          "name": "_data",
          "type": "bytes"
        }
      ],
      "name": "safeTransferFrom",
      "outputs": [],
      "stateMutability": "nonpayable",
      "type": "function"
    },
    {
      "inputs": [
        {
          "internalType": "address",
          "name": "operator",
          "type": "address"
        },
        {
          "internalType": "bool",
          "name": "approved",
          "type": "bool"
        }
      ],
      "name": "setApprovalForAll",
      "outputs": [],
      "stateMutability": "nonpayable",
      "type": "function"
    },
    {
      "inputs": [
        {
          "internalType": "bytes4",
          "name": "interfaceId",
          "type": "bytes4"
        }
      ],
      "name": "supportsInterface",
      "outputs": [
        {
          "internalType": "bool",
          "name": "",
          "type": "bool"
        }
      ],
      "stateMutability": "view",
      "type": "function",
      "constant": true
    },
    {
      "inputs": [],
      "name": "symbol",
      "outputs": [
        {
          "internalType": "string",
          "name": "",
          "type": "string"
        }
      ],
      "stateMutability": "view",
      "type": "function",
      "constant": true
    },
    {
      "inputs": [
        {
          "internalType": "uint256",
          "name": "tokenId",
          "type": "uint256"
        }
      ],
      "name": "tokenURI",
      "outputs": [
        {
          "internalType": "string",
          "name": "",
          "type": "string"
        }
      ],
      "stateMutability": "view",
      "type": "function",
      "constant": true
    },
    {
      "inputs": [
        {
          "internalType": "address",
          "name": "from",
          "type": "address"
        },
        {
          "internalType": "address",
          "name": "to",
          "type": "address"
        },
        {
          "internalType": "uint256",
          "name": "tokenId",
          "type": "uint256"
        }
      ],
      "name": "transferFrom",
      "outputs": [],
      "stateMutability": "nonpayable",
      "type": "function"
    },
    {
      "inputs": [
        {
          "internalType": "address",
          "name": "newOwner",
          "type": "address"
        }
      ],
      "name": "transferOwnership",
      "outputs": [],
      "stateMutability": "nonpayable",
      "type": "function"
    },
    {
      "inputs": [],
      "name": "uriPrefix",
      "outputs": [
        {
          "internalType": "string",
          "name": "",
          "type": "string"
        }
      ],
      "stateMutability": "view",
      "type": "function",
      "constant": true
    },
    {
      "inputs": [],
      "name": "uriSuffix",
      "outputs": [
        {
          "internalType": "string",
          "name": "",
          "type": "string"
        }
      ],
      "stateMutability": "view",
      "type": "function",
      "constant": true
    },
    {
      "inputs": [
        {
          "internalType": "uint256",
          "name": "donationAmount",
          "type": "uint256"
        },
        {
          "internalType": "uint256",
          "name": "orgPick",
          "type": "uint256"
        },
        {
          "internalType": "string",
          "name": "tokenURI",
          "type": "string"
        }
      ],
      "name": "mint",
      "outputs": [
        {
          "internalType": "uint256",
          "name": "",
          "type": "uint256"
        }
      ],
      "stateMutability": "payable",
      "type": "function",
      "payable": true
    },
    {
      "inputs": [],
      "name": "withdraw",
      "outputs": [],
      "stateMutability": "nonpayable",
      "type": "function"
    },
    {
      "inputs": [],
      "name": "withdraw2",
      "outputs": [],
      "stateMutability": "nonpayable",
      "type": "function"
    },
    {
      "inputs": [],
      "name": "getData",
      "outputs": [
        {
          "internalType": "string",
          "name": "",
          "type": "string"
        }
      ],
      "stateMutability": "view",
      "type": "function",
      "constant": true
    },
    {
      "inputs": [],
      "name": "emergencyWithdraw",
      "outputs": [],
      "stateMutability": "nonpayable",
      "type": "function"
    },
    {
      "inputs": [
        {
          "internalType": "uint256",
          "name": "_newCost",
          "type": "uint256"
        }
      ],
      "name": "setCost",
      "outputs": [],
      "stateMutability": "nonpayable",
      "type": "function"
    },
    {
      "inputs": [
        {
          "internalType": "uint256",
          "name": "_newCost",
          "type": "uint256"
        }
      ],
      "name": "setOrg1",
      "outputs": [
        {
          "internalType": "uint256",
          "name": "",
          "type": "uint256"
        }
      ],
      "stateMutability": "nonpayable",
      "type": "function"
    },
    {
      "inputs": [
        {
          "internalType": "uint256",
          "name": "_newCost",
          "type": "uint256"
        }
      ],
      "name": "setOrg2",
      "outputs": [
        {
          "internalType": "uint256",
          "name": "",
          "type": "uint256"
        }
      ],
      "stateMutability": "nonpayable",
      "type": "function"
    },
    {
      "inputs": [
        {
          "internalType": "uint256",
          "name": "_newCost",
          "type": "uint256"
        }
      ],
      "name": "setOrg3",
      "outputs": [
        {
          "internalType": "uint256",
          "name": "",
          "type": "uint256"
        }
      ],
      "stateMutability": "nonpayable",
      "type": "function"
    },
    {
      "inputs": [
        {
          "internalType": "uint256",
          "name": "_newCost",
          "type": "uint256"
        }
      ],
      "name": "setOrg4",
      "outputs": [],
      "stateMutability": "nonpayable",
      "type": "function"
    },
    {
      "inputs": [],
      "name": "setNullOrg1",
      "outputs": [],
      "stateMutability": "nonpayable",
      "type": "function"
    },
    {
      "inputs": [],
      "name": "setNullOrgs",
      "outputs": [],
      "stateMutability": "nonpayable",
      "type": "function"
    },
    {
      "inputs": [
        {
          "internalType": "uint256",
          "name": "_maxMintAmountPerTx",
          "type": "uint256"
        }
      ],
      "name": "setMaxMintAmountPerTx",
      "outputs": [],
      "stateMutability": "nonpayable",
      "type": "function"
    },
    {
      "inputs": [
        {
          "internalType": "bool",
          "name": "_state",
          "type": "bool"
        }
      ],
      "name": "setRevealed",
      "outputs": [],
      "stateMutability": "nonpayable",
      "type": "function"
    },
    {
      "inputs": [
        {
          "internalType": "bool",
          "name": "_state",
          "type": "bool"
        }
      ],
      "name": "setPaused",
      "outputs": [],
      "stateMutability": "nonpayable",
      "type": "function"
    },
    {
      "inputs": [
        {
          "internalType": "string",
          "name": "_hiddenMetadataUri",
          "type": "string"
        }
      ],
      "name": "setHiddenMetadataUri",
      "outputs": [],
      "stateMutability": "nonpayable",
      "type": "function"
    },
    {
      "inputs": [
        {
          "internalType": "string",
          "name": "_uriPrefix",
          "type": "string"
        }
      ],
      "name": "setUriPrefix",
      "outputs": [],
      "stateMutability": "nonpayable",
      "type": "function"
    },
    {
      "inputs": [
        {
          "internalType": "string",
          "name": "_uriSuffix",
          "type": "string"
        }
      ],
      "name": "setUriSuffix",
      "outputs": [],
      "stateMutability": "nonpayable",
      "type": "function"
    },
    {
      "inputs": [
        {
          "internalType": "address",
          "name": "_owner",
          "type": "address"
        }
      ],
      "name": "walletOfOwner",
      "outputs": [
        {
          "internalType": "uint256[]",
          "name": "",
          "type": "uint256[]"
        }
      ],
      "stateMutability": "view",
      "type": "function",
      "constant": true
    }
  ],
  "bytecode": "0x608060405260405180602001604052806000815250600990805190602001906200002b92919062000554565b506040518060400160405280600581526020017f2e6a736f6e000000000000000000000000000000000000000000000000000000815250600a90805190602001906200007992919062000554565b506702c68af0bb140000600c55662386f26fc10000600e5561015e600f55600a6010556001601160006101000a81548160ff0219169083151502179055506001601160016101000a81548160ff021916908315150217905550604051806080016040528073943590a42c27d08e3744202c4ae5ed55c2de240d73ffffffffffffffffffffffffffffffffffffffff1673ffffffffffffffffffffffffffffffffffffffff16815260200173943590a42c27d08e3744202c4ae5ed55c2de240d73ffffffffffffffffffffffffffffffffffffffff1673ffffffffffffffffffffffffffffffffffffffff16815260200173943590a42c27d08e3744202c4ae5ed55c2de240d73ffffffffffffffffffffffffffffffffffffffff1673ffffffffffffffffffffffffffffffffffffffff16815260200173943590a42c27d08e3744202c4ae5ed55c2de240d73ffffffffffffffffffffffffffffffffffffffff1673ffffffffffffffffffffffffffffffffffffffff16815250601290600462000205929190620005e5565b506040518060800160405280600060ff168152602001600060ff168152602001600060ff168152602001600060ff1681525060139060046200024992919062000674565b50736869b06df899808cbb20e8d3231a554d4d45f956601460006101000a81548173ffffffffffffffffffffffffffffffffffffffff021916908373ffffffffffffffffffffffffffffffffffffffff160217905550600060155573f85b166c5cf2e513104643b4c100f4d2116ca080601660006101000a81548173ffffffffffffffffffffffffffffffffffffffff021916908373ffffffffffffffffffffffffffffffffffffffff1602179055506000601755730f9640c0915d4b5ef8c38f632b62c7718f2d4089601860006101000a81548173ffffffffffffffffffffffffffffffffffffffff021916908373ffffffffffffffffffffffffffffffffffffffff160217905550600060195573e13badf08279a20550cf69483c5f498ef24efd54601a60006101000a81548173ffffffffffffffffffffffffffffffffffffffff021916908373ffffffffffffffffffffffffffffffffffffffff1602179055506000601b55348015620003bf57600080fd5b506040518060400160405280601081526020017f526576656e6765206f6620446f676f73000000000000000000000000000000008152506040518060400160405280600381526020017f526f44000000000000000000000000000000000000000000000000000000000081525081600090805190602001906200044492919062000554565b5080600190805190602001906200045d92919062000554565b50505062000480620004746200048660201b60201c565b6200048e60201b60201c565b6200074f565b600033905090565b6000600760009054906101000a900473ffffffffffffffffffffffffffffffffffffffff16905081600760006101000a81548173ffffffffffffffffffffffffffffffffffffffff021916908373ffffffffffffffffffffffffffffffffffffffff1602179055508173ffffffffffffffffffffffffffffffffffffffff168173ffffffffffffffffffffffffffffffffffffffff167f8be0079c531659141344cd1fd0a4f28419497f9722a3daafe3b4186f6b6457e060405160405180910390a35050565b828054620005629062000719565b90600052602060002090601f016020900481019282620005865760008555620005d2565b82601f10620005a157805160ff1916838001178555620005d2565b82800160010185558215620005d2579182015b82811115620005d1578251825591602001919060010190620005b4565b5b509050620005e19190620006cb565b5090565b82805482825590600052602060002090810192821562000661579160200282015b82811115620006605782518260006101000a81548173ffffffffffffffffffffffffffffffffffffffff021916908373ffffffffffffffffffffffffffffffffffffffff1602179055509160200191906001019062000606565b5b509050620006709190620006cb565b5090565b828054828255906000526020600020908101928215620006b8579160200282015b82811115620006b7578251829060ff1690559160200191906001019062000695565b5b509050620006c79190620006cb565b5090565b5b80821115620006e6576000816000905550600101620006cc565b5090565b7f4e487b7100000000000000000000000000000000000000000000000000000000600052602260045260246000fd5b600060028204905060018216806200073257607f821691505b60208210811415620007495762000748620006ea565b5b50919050565b614d7e806200075f6000396000f3fe6080604052600436106103505760003560e01c80636f2c4642116101c6578063b071401b116100f7578063e0a8085311610095578063ee18b5591161006f578063ee18b55914610c33578063f2fde38b14610c4a578063f4e1543514610c73578063feb2311714610c9e57610350565b8063e0a8085314610bb6578063e985e9c514610bdf578063ea98847b14610c1c57610350565b8063c6e64e53116100d1578063c6e64e5314610b07578063c87b56dd14610b37578063c88c403e14610b74578063db2e21bc14610b9f57610350565b8063b071401b14610a8c578063b59773d014610ab5578063b88d4fde14610ade57610350565b80638dde04021161016457806395d89b411161013e57806395d89b41146109f6578063a22cb46514610a21578063a45ba8e714610a4a578063a486962214610a7557610350565b80638dde040214610963578063916cbccf1461098e57806394354fd0146109cb57610350565b806373d4a13a116101a057806373d4a13a146108b95780637ec4a659146108e4578063811b71e81461090d5780638da5cb5b1461093857610350565b80636f2c46421461083a57806370a0823114610865578063715018a6146108a257610350565b806344a0d68a116102a05780635503a0e81161023e57806362b99ad41161021857806362b99ad41461077c5780636352211e146107a7578063658612e9146107e4578063664585581461080f57610350565b80635503a0e8146106fb5780635b6a9eb4146107265780635c975abb1461075157610350565b80634e9e1ec61161027a5780634e9e1ec61461063f5780634fdd43cb1461066a578063518302271461069357806353e0e962146106be57610350565b806344a0d68a146105c057806347be9e6e146105e95780634c8978c81461061457610350565b806316c38b3c1161030d5780633bc5de30116102e75780633bc5de30146105185780633ccfd60b1461054357806342842e0e1461055a578063438b63001461058357610350565b806316c38b3c1461048957806321d0326f146104b257806323b872dd146104ef57610350565b806301ffc9a714610355578063051695331461039257806306fdde03146103cf578063081812fc146103fa578063095ea7b31461043757806316ba10e014610460575b600080fd5b34801561036157600080fd5b5061037c600480360381019061037791906137d9565b610cdb565b6040516103899190613821565b60405180910390f35b34801561039e57600080fd5b506103b960048036038101906103b49190613872565b610dbd565b6040516103c691906138ae565b60405180910390f35b3480156103db57600080fd5b506103e4610de9565b6040516103f19190613962565b60405180910390f35b34801561040657600080fd5b50610421600480360381019061041c9190613872565b610e7b565b60405161042e91906139c5565b60405180910390f35b34801561044357600080fd5b5061045e60048036038101906104599190613a0c565b610f00565b005b34801561046c57600080fd5b5061048760048036038101906104829190613b81565b611018565b005b34801561049557600080fd5b506104b060048036038101906104ab9190613bf6565b6110ae565b005b3480156104be57600080fd5b506104d960048036038101906104d49190613872565b611147565b6040516104e691906139c5565b60405180910390f35b3480156104fb57600080fd5b5061051660048036038101906105119190613c23565b611186565b005b34801561052457600080fd5b5061052d6111e6565b60405161053a9190613962565b60405180910390f35b34801561054f57600080fd5b50610558611278565b005b34801561056657600080fd5b50610581600480360381019061057c9190613c23565b611576565b005b34801561058f57600080fd5b506105aa60048036038101906105a59190613c76565b611596565b6040516105b79190613d61565b60405180910390f35b3480156105cc57600080fd5b506105e760048036038101906105e29190613872565b6116a1565b005b3480156105f557600080fd5b506105fe611727565b60405161060b91906139c5565b60405180910390f35b34801561062057600080fd5b5061062961174d565b60405161063691906138ae565b60405180910390f35b34801561064b57600080fd5b50610654611753565b60405161066191906138ae565b60405180910390f35b34801561067657600080fd5b50610691600480360381019061068c9190613b81565b611759565b005b34801561069f57600080fd5b506106a86117ef565b6040516106b59190613821565b60405180910390f35b3480156106ca57600080fd5b506106e560048036038101906106e09190613872565b611802565b6040516106f291906138ae565b60405180910390f35b34801561070757600080fd5b5061071061182e565b60405161071d9190613962565b60405180910390f35b34801561073257600080fd5b5061073b6118bc565b60405161074891906138ae565b60405180910390f35b34801561075d57600080fd5b506107666118c2565b6040516107739190613821565b60405180910390f35b34801561078857600080fd5b506107916118d5565b60405161079e9190613962565b60405180910390f35b3480156107b357600080fd5b506107ce60048036038101906107c99190613872565b611963565b6040516107db91906139c5565b60405180910390f35b3480156107f057600080fd5b506107f9611a15565b60405161080691906138ae565b60405180910390f35b34801561081b57600080fd5b50610824611a1b565b60405161083191906139c5565b60405180910390f35b34801561084657600080fd5b5061084f611a41565b60405161085c91906138ae565b60405180910390f35b34801561087157600080fd5b5061088c60048036038101906108879190613c76565b611a47565b60405161089991906138ae565b60405180910390f35b3480156108ae57600080fd5b506108b7611aff565b005b3480156108c557600080fd5b506108ce611b87565b6040516108db9190613962565b60405180910390f35b3480156108f057600080fd5b5061090b60048036038101906109069190613b81565b611c15565b005b34801561091957600080fd5b50610922611cab565b60405161092f91906138ae565b60405180910390f35b34801561094457600080fd5b5061094d611cb1565b60405161095a91906139c5565b60405180910390f35b34801561096f57600080fd5b50610978611cdb565b60405161098591906139c5565b60405180910390f35b34801561099a57600080fd5b506109b560048036038101906109b09190613872565b611d01565b6040516109c291906138ae565b60405180910390f35b3480156109d757600080fd5b506109e0611d25565b6040516109ed91906138ae565b60405180910390f35b348015610a0257600080fd5b50610a0b611d2b565b604051610a189190613962565b60405180910390f35b348015610a2d57600080fd5b50610a486004803603810190610a439190613d83565b611dbd565b005b348015610a5657600080fd5b50610a5f611f3e565b604051610a6c9190613962565b60405180910390f35b348015610a8157600080fd5b50610a8a611fcc565b005b348015610a9857600080fd5b50610ab36004803603810190610aae9190613872565b611fd6565b005b348015610ac157600080fd5b50610adc6004803603810190610ad79190613872565b61205c565b005b348015610aea57600080fd5b50610b056004803603810190610b009190613e64565b612084565b005b610b216004803603810190610b1c9190613ee7565b6120e6565b604051610b2e91906138ae565b60405180910390f35b348015610b4357600080fd5b50610b5e6004803603810190610b599190613872565b6121cf565b604051610b6b9190613962565b60405180910390f35b348015610b8057600080fd5b50610b89612321565b604051610b9691906138ae565b60405180910390f35b348015610bab57600080fd5b50610bb4612327565b005b348015610bc257600080fd5b50610bdd6004803603810190610bd89190613bf6565b612423565b005b348015610beb57600080fd5b50610c066004803603810190610c019190613f56565b6124bc565b604051610c139190613821565b60405180910390f35b348015610c2857600080fd5b50610c31612550565b005b348015610c3f57600080fd5b50610c486128bc565b005b348015610c5657600080fd5b50610c716004803603810190610c6c9190613c76565b6128de565b005b348015610c7f57600080fd5b50610c886129d6565b604051610c9591906139c5565b60405180910390f35b348015610caa57600080fd5b50610cc56004803603810190610cc09190613872565b6129fc565b604051610cd291906138ae565b60405180910390f35b60007f80ac58cd000000000000000000000000000000000000000000000000000000007bffffffffffffffffffffffffffffffffffffffffffffffffffffffff1916827bffffffffffffffffffffffffffffffffffffffffffffffffffffffff19161480610da657507f5b5e139f000000000000000000000000000000000000000000000000000000007bffffffffffffffffffffffffffffffffffffffffffffffffffffffff1916827bffffffffffffffffffffffffffffffffffffffffffffffffffffffff1916145b80610db65750610db582612a28565b5b9050919050565b6000816001610dcc9190613fc5565b601754610dd9919061401f565b6017819055506017549050919050565b606060008054610df8906140a4565b80601f0160208091040260200160405190810160405280929190818152602001828054610e24906140a4565b8015610e715780601f10610e4657610100808354040283529160200191610e71565b820191906000526020600020905b815481529060010190602001808311610e5457829003601f168201915b5050505050905090565b6000610e8682612a92565b610ec5576040517f08c379a0000000000000000000000000000000000000000000000000000000008152600401610ebc90614148565b60405180910390fd5b6004600083815260200190815260200160002060009054906101000a900473ffffffffffffffffffffffffffffffffffffffff169050919050565b6000610f0b82611963565b90508073ffffffffffffffffffffffffffffffffffffffff168373ffffffffffffffffffffffffffffffffffffffff161415610f7c576040517f08c379a0000000000000000000000000000000000000000000000000000000008152600401610f73906141da565b60405180910390fd5b8073ffffffffffffffffffffffffffffffffffffffff16610f9b612afe565b73ffffffffffffffffffffffffffffffffffffffff161480610fca5750610fc981610fc4612afe565b6124bc565b5b611009576040517f08c379a00000000000000000000000000000000000000000000000000000000081526004016110009061426c565b60405180910390fd5b6110138383612b06565b505050565b611020612afe565b73ffffffffffffffffffffffffffffffffffffffff1661103e611cb1565b73ffffffffffffffffffffffffffffffffffffffff1614611094576040517f08c379a000000000000000000000000000000000000000000000000000000000815260040161108b906142d8565b60405180910390fd5b80600a90805190602001906110aa9291906136ca565b5050565b6110b6612afe565b73ffffffffffffffffffffffffffffffffffffffff166110d4611cb1565b73ffffffffffffffffffffffffffffffffffffffff161461112a576040517f08c379a0000000000000000000000000000000000000000000000000000000008152600401611121906142d8565b60405180910390fd5b80601160006101000a81548160ff02191690831515021790555050565b6012818154811061115757600080fd5b906000526020600020016000915054906101000a900473ffffffffffffffffffffffffffffffffffffffff1681565b611197611191612afe565b82612bbf565b6111d6576040517f08c379a00000000000000000000000000000000000000000000000000000000081526004016111cd9061436a565b60405180910390fd5b6111e1838383612c9d565b505050565b6060600d80546111f5906140a4565b80601f0160208091040260200160405190810160405280929190818152602001828054611221906140a4565b801561126e5780601f106112435761010080835404028352916020019161126e565b820191906000526020600020905b81548152906001019060200180831161125157829003601f168201915b5050505050905090565b6000601460009054906101000a900473ffffffffffffffffffffffffffffffffffffffff1673ffffffffffffffffffffffffffffffffffffffff166064600c546015546112c5919061438a565b476112d09190613fc5565b6112da91906143ed565b6040516112e69061444f565b60006040518083038185875af1925050503d8060008114611323576040519150601f19603f3d011682016040523d82523d6000602084013e611328565b606091505b505090508061133657600080fd5b6000601660009054906101000a900473ffffffffffffffffffffffffffffffffffffffff1673ffffffffffffffffffffffffffffffffffffffff166064600c54601754611383919061438a565b4761138e9190613fc5565b61139891906143ed565b6040516113a49061444f565b60006040518083038185875af1925050503d80600081146113e1576040519150601f19603f3d011682016040523d82523d6000602084013e6113e6565b606091505b50509050806113f457600080fd5b6000601860009054906101000a900473ffffffffffffffffffffffffffffffffffffffff1673ffffffffffffffffffffffffffffffffffffffff166064600c54601954611441919061438a565b4761144c9190613fc5565b61145691906143ed565b6040516114629061444f565b60006040518083038185875af1925050503d806000811461149f576040519150601f19603f3d011682016040523d82523d6000602084013e6114a4565b606091505b50509050806114b257600080fd5b6000601a60009054906101000a900473ffffffffffffffffffffffffffffffffffffffff1673ffffffffffffffffffffffffffffffffffffffff166064600c54601b546114ff919061438a565b4761150a9190613fc5565b61151491906143ed565b6040516115209061444f565b60006040518083038185875af1925050503d806000811461155d576040519150601f19603f3d011682016040523d82523d6000602084013e611562565b606091505b505090508061157057600080fd5b50505050565b61159183838360405180602001604052806000815250612084565b505050565b606060006115a383611a47565b905060008167ffffffffffffffff8111156115c1576115c0613a56565b5b6040519080825280602002602001820160405280156115ef5781602001602082028036833780820191505090505b50905060006001905060005b838110801561160c5750600f548211155b1561169557600061161c83611963565b90508673ffffffffffffffffffffffffffffffffffffffff168173ffffffffffffffffffffffffffffffffffffffff161415611681578284838151811061166657611665614464565b5b602002602001018181525050818061167d90614493565b9250505b828061168c90614493565b935050506115fb565b82945050505050919050565b6116a9612afe565b73ffffffffffffffffffffffffffffffffffffffff166116c7611cb1565b73ffffffffffffffffffffffffffffffffffffffff161461171d576040517f08c379a0000000000000000000000000000000000000000000000000000000008152600401611714906142d8565b60405180910390fd5b80600e8190555050565b601860009054906101000a900473ffffffffffffffffffffffffffffffffffffffff1681565b60175481565b600f5481565b611761612afe565b73ffffffffffffffffffffffffffffffffffffffff1661177f611cb1565b73ffffffffffffffffffffffffffffffffffffffff16146117d5576040517f08c379a00000000000000000000000000000000000000000000000000000000081526004016117cc906142d8565b60405180910390fd5b80600b90805190602001906117eb9291906136ca565b5050565b601160019054906101000a900460ff1681565b60008160016118119190613fc5565b60155461181e919061401f565b6015819055506015549050919050565b600a805461183b906140a4565b80601f0160208091040260200160405190810160405280929190818152602001828054611867906140a4565b80156118b45780601f10611889576101008083540402835291602001916118b4565b820191906000526020600020905b81548152906001019060200180831161189757829003601f168201915b505050505081565b600e5481565b601160009054906101000a900460ff1681565b600980546118e2906140a4565b80601f016020809104026020016040519081016040528092919081815260200182805461190e906140a4565b801561195b5780601f106119305761010080835404028352916020019161195b565b820191906000526020600020905b81548152906001019060200180831161193e57829003601f168201915b505050505081565b6000806002600084815260200190815260200160002060009054906101000a900473ffffffffffffffffffffffffffffffffffffffff169050600073ffffffffffffffffffffffffffffffffffffffff168173ffffffffffffffffffffffffffffffffffffffff161415611a0c576040517f08c379a0000000000000000000000000000000000000000000000000000000008152600401611a039061454e565b60405180910390fd5b80915050919050565b600c5481565b601460009054906101000a900473ffffffffffffffffffffffffffffffffffffffff1681565b60195481565b60008073ffffffffffffffffffffffffffffffffffffffff168273ffffffffffffffffffffffffffffffffffffffff161415611ab8576040517f08c379a0000000000000000000000000000000000000000000000000000000008152600401611aaf906145e0565b60405180910390fd5b600360008373ffffffffffffffffffffffffffffffffffffffff1673ffffffffffffffffffffffffffffffffffffffff168152602001908152602001600020549050919050565b611b07612afe565b73ffffffffffffffffffffffffffffffffffffffff16611b25611cb1565b73ffffffffffffffffffffffffffffffffffffffff1614611b7b576040517f08c379a0000000000000000000000000000000000000000000000000000000008152600401611b72906142d8565b60405180910390fd5b611b856000612ef9565b565b600d8054611b94906140a4565b80601f0160208091040260200160405190810160405280929190818152602001828054611bc0906140a4565b8015611c0d5780601f10611be257610100808354040283529160200191611c0d565b820191906000526020600020905b815481529060010190602001808311611bf057829003601f168201915b505050505081565b611c1d612afe565b73ffffffffffffffffffffffffffffffffffffffff16611c3b611cb1565b73ffffffffffffffffffffffffffffffffffffffff1614611c91576040517f08c379a0000000000000000000000000000000000000000000000000000000008152600401611c88906142d8565b60405180910390fd5b8060099080519060200190611ca79291906136ca565b5050565b601b5481565b6000600760009054906101000a900473ffffffffffffffffffffffffffffffffffffffff16905090565b601660009054906101000a900473ffffffffffffffffffffffffffffffffffffffff1681565b60138181548110611d1157600080fd5b906000526020600020016000915090505481565b60105481565b606060018054611d3a906140a4565b80601f0160208091040260200160405190810160405280929190818152602001828054611d66906140a4565b8015611db35780601f10611d8857610100808354040283529160200191611db3565b820191906000526020600020905b815481529060010190602001808311611d9657829003601f168201915b5050505050905090565b611dc5612afe565b73ffffffffffffffffffffffffffffffffffffffff168273ffffffffffffffffffffffffffffffffffffffff161415611e33576040517f08c379a0000000000000000000000000000000000000000000000000000000008152600401611e2a9061464c565b60405180910390fd5b8060056000611e40612afe565b73ffffffffffffffffffffffffffffffffffffffff1673ffffffffffffffffffffffffffffffffffffffff16815260200190815260200160002060008473ffffffffffffffffffffffffffffffffffffffff1673ffffffffffffffffffffffffffffffffffffffff16815260200190815260200160002060006101000a81548160ff0219169083151502179055508173ffffffffffffffffffffffffffffffffffffffff16611eed612afe565b73ffffffffffffffffffffffffffffffffffffffff167f17307eab39ab6107e8899845ad3d59bd9653f200f220920489ca2b5937696c3183604051611f329190613821565b60405180910390a35050565b600b8054611f4b906140a4565b80601f0160208091040260200160405190810160405280929190818152602001828054611f77906140a4565b8015611fc45780601f10611f9957610100808354040283529160200191611fc4565b820191906000526020600020905b815481529060010190602001808311611fa757829003601f168201915b505050505081565b6000601581905550565b611fde612afe565b73ffffffffffffffffffffffffffffffffffffffff16611ffc611cb1565b73ffffffffffffffffffffffffffffffffffffffff1614612052576040517f08c379a0000000000000000000000000000000000000000000000000000000008152600401612049906142d8565b60405180910390fd5b8060108190555050565b8060016120699190613fc5565b601b600082825461207a919061401f565b9250508190555050565b61209561208f612afe565b83612bbf565b6120d4576040517f08c379a00000000000000000000000000000000000000000000000000000000081526004016120cb9061436a565b60405180910390fd5b6120e084848484612fbf565b50505050565b600061015e6120f5600861301b565b10156121c357600f54612108600861301b565b1061211257600080fd5b600e5434101561212157600080fd5b600183141561213e5761213384611802565b60158190555061218e565b600283141561215b5761215084610dbd565b60178190555061218d565b60038314156121785761216d846129fc565b60198190555061218c565b600483141561218b5761218a8461205c565b5b5b5b5b6121986008613029565b60006121a4600861301b565b90506121b0338261303f565b6121ba818461320d565b809150506121c8565b600090505b9392505050565b60606121da82612a92565b612219576040517f08c379a0000000000000000000000000000000000000000000000000000000008152600401612210906146de565b60405180910390fd5b6000600660008481526020019081526020016000208054612239906140a4565b80601f0160208091040260200160405190810160405280929190818152602001828054612265906140a4565b80156122b25780601f10612287576101008083540402835291602001916122b2565b820191906000526020600020905b81548152906001019060200180831161229557829003601f168201915b5050505050905060006122c3613281565b90506000815114156122d957819250505061231c565b60008251111561230e5780826040516020016122f692919061473a565b6040516020818303038152906040529250505061231c565b61231784613313565b925050505b919050565b60155481565b61232f612afe565b73ffffffffffffffffffffffffffffffffffffffff1661234d611cb1565b73ffffffffffffffffffffffffffffffffffffffff16146123a3576040517f08c379a000000000000000000000000000000000000000000000000000000000815260040161239a906142d8565b60405180910390fd5b60006123ad611cb1565b73ffffffffffffffffffffffffffffffffffffffff16476040516123d09061444f565b60006040518083038185875af1925050503d806000811461240d576040519150601f19603f3d011682016040523d82523d6000602084013e612412565b606091505b505090508061242057600080fd5b50565b61242b612afe565b73ffffffffffffffffffffffffffffffffffffffff16612449611cb1565b73ffffffffffffffffffffffffffffffffffffffff161461249f576040517f08c379a0000000000000000000000000000000000000000000000000000000008152600401612496906142d8565b60405180910390fd5b80601160016101000a81548160ff02191690831515021790555050565b6000600560008473ffffffffffffffffffffffffffffffffffffffff1673ffffffffffffffffffffffffffffffffffffffff16815260200190815260200160002060008373ffffffffffffffffffffffffffffffffffffffff1673ffffffffffffffffffffffffffffffffffffffff16815260200190815260200160002060009054906101000a900460ff16905092915050565b612558612afe565b73ffffffffffffffffffffffffffffffffffffffff16612576611cb1565b73ffffffffffffffffffffffffffffffffffffffff16146125cc576040517f08c379a00000000000000000000000000000000000000000000000000000000081526004016125c3906142d8565b60405180910390fd5b6000601460009054906101000a900473ffffffffffffffffffffffffffffffffffffffff1673ffffffffffffffffffffffffffffffffffffffff16600c54601b546019546017544761261e919061438a565b612628919061438a565b612632919061438a565b61263c919061438a565b6040516126489061444f565b60006040518083038185875af1925050503d8060008114612685576040519150601f19603f3d011682016040523d82523d6000602084013e61268a565b606091505b505090508061269857600080fd5b6000601660009054906101000a900473ffffffffffffffffffffffffffffffffffffffff1673ffffffffffffffffffffffffffffffffffffffff16600c54601b54601954476126e7919061438a565b6126f1919061438a565b6126fb919061438a565b6040516127079061444f565b60006040518083038185875af1925050503d8060008114612744576040519150601f19603f3d011682016040523d82523d6000602084013e612749565b606091505b505090508061275757600080fd5b6000601860009054906101000a900473ffffffffffffffffffffffffffffffffffffffff1673ffffffffffffffffffffffffffffffffffffffff16600c54601b54476127a3919061438a565b6127ad919061438a565b6040516127b99061444f565b60006040518083038185875af1925050503d80600081146127f6576040519150601f19603f3d011682016040523d82523d6000602084013e6127fb565b606091505b505090508061280957600080fd5b6000601a60009054906101000a900473ffffffffffffffffffffffffffffffffffffffff1673ffffffffffffffffffffffffffffffffffffffff16600c5447612852919061438a565b60405161285e9061444f565b60006040518083038185875af1925050503d806000811461289b576040519150601f19603f3d011682016040523d82523d6000602084013e6128a0565b606091505b50509050806128ae57600080fd5b6128b66128bc565b50505050565b6000601581905550600060178190555060006019819055506000601b81905550565b6128e6612afe565b73ffffffffffffffffffffffffffffffffffffffff16612904611cb1565b73ffffffffffffffffffffffffffffffffffffffff161461295a576040517f08c379a0000000000000000000000000000000000000000000000000000000008152600401612951906142d8565b60405180910390fd5b600073ffffffffffffffffffffffffffffffffffffffff168173ffffffffffffffffffffffffffffffffffffffff1614156129ca576040517f08c379a00000000000000000000000000000000000000000000000000000000081526004016129c1906147d0565b60405180910390fd5b6129d381612ef9565b50565b601a60009054906101000a900473ffffffffffffffffffffffffffffffffffffffff1681565b6000816001612a0b9190613fc5565b601954612a18919061401f565b6019819055506019549050919050565b60007f01ffc9a7000000000000000000000000000000000000000000000000000000007bffffffffffffffffffffffffffffffffffffffffffffffffffffffff1916827bffffffffffffffffffffffffffffffffffffffffffffffffffffffff1916149050919050565b60008073ffffffffffffffffffffffffffffffffffffffff166002600084815260200190815260200160002060009054906101000a900473ffffffffffffffffffffffffffffffffffffffff1673ffffffffffffffffffffffffffffffffffffffff1614159050919050565b600033905090565b816004600083815260200190815260200160002060006101000a81548173ffffffffffffffffffffffffffffffffffffffff021916908373ffffffffffffffffffffffffffffffffffffffff160217905550808273ffffffffffffffffffffffffffffffffffffffff16612b7983611963565b73ffffffffffffffffffffffffffffffffffffffff167f8c5be1e5ebec7d5bd14f71427d1e84f3dd0314c0f7b2291e5b200ac8c7c3b92560405160405180910390a45050565b6000612bca82612a92565b612c09576040517f08c379a0000000000000000000000000000000000000000000000000000000008152600401612c0090614862565b60405180910390fd5b6000612c1483611963565b90508073ffffffffffffffffffffffffffffffffffffffff168473ffffffffffffffffffffffffffffffffffffffff161480612c8357508373ffffffffffffffffffffffffffffffffffffffff16612c6b84610e7b565b73ffffffffffffffffffffffffffffffffffffffff16145b80612c945750612c9381856124bc565b5b91505092915050565b8273ffffffffffffffffffffffffffffffffffffffff16612cbd82611963565b73ffffffffffffffffffffffffffffffffffffffff1614612d13576040517f08c379a0000000000000000000000000000000000000000000000000000000008152600401612d0a906148f4565b60405180910390fd5b600073ffffffffffffffffffffffffffffffffffffffff168273ffffffffffffffffffffffffffffffffffffffff161415612d83576040517f08c379a0000000000000000000000000000000000000000000000000000000008152600401612d7a90614986565b60405180910390fd5b612d8e8383836133ba565b612d99600082612b06565b6001600360008573ffffffffffffffffffffffffffffffffffffffff1673ffffffffffffffffffffffffffffffffffffffff1681526020019081526020016000206000828254612de9919061438a565b925050819055506001600360008473ffffffffffffffffffffffffffffffffffffffff1673ffffffffffffffffffffffffffffffffffffffff1681526020019081526020016000206000828254612e40919061401f565b92505081905550816002600083815260200190815260200160002060006101000a81548173ffffffffffffffffffffffffffffffffffffffff021916908373ffffffffffffffffffffffffffffffffffffffff160217905550808273ffffffffffffffffffffffffffffffffffffffff168473ffffffffffffffffffffffffffffffffffffffff167fddf252ad1be2c89b69c2b068fc378daa952ba7f163c4a11628f55a4df523b3ef60405160405180910390a4505050565b6000600760009054906101000a900473ffffffffffffffffffffffffffffffffffffffff16905081600760006101000a81548173ffffffffffffffffffffffffffffffffffffffff021916908373ffffffffffffffffffffffffffffffffffffffff1602179055508173ffffffffffffffffffffffffffffffffffffffff168173ffffffffffffffffffffffffffffffffffffffff167f8be0079c531659141344cd1fd0a4f28419497f9722a3daafe3b4186f6b6457e060405160405180910390a35050565b612fca848484612c9d565b612fd6848484846133bf565b613015576040517f08c379a000000000000000000000000000000000000000000000000000000000815260040161300c90614a18565b60405180910390fd5b50505050565b600081600001549050919050565b6001816000016000828254019250508190555050565b600073ffffffffffffffffffffffffffffffffffffffff168273ffffffffffffffffffffffffffffffffffffffff1614156130af576040517f08c379a00000000000000000000000000000000000000000000000000000000081526004016130a690614a84565b60405180910390fd5b6130b881612a92565b156130f8576040517f08c379a00000000000000000000000000000000000000000000000000000000081526004016130ef90614af0565b60405180910390fd5b613104600083836133ba565b6001600360008473ffffffffffffffffffffffffffffffffffffffff1673ffffffffffffffffffffffffffffffffffffffff1681526020019081526020016000206000828254613154919061401f565b92505081905550816002600083815260200190815260200160002060006101000a81548173ffffffffffffffffffffffffffffffffffffffff021916908373ffffffffffffffffffffffffffffffffffffffff160217905550808273ffffffffffffffffffffffffffffffffffffffff16600073ffffffffffffffffffffffffffffffffffffffff167fddf252ad1be2c89b69c2b068fc378daa952ba7f163c4a11628f55a4df523b3ef60405160405180910390a45050565b61321682612a92565b613255576040517f08c379a000000000000000000000000000000000000000000000000000000000815260040161324c90614b82565b60405180910390fd5b8060066000848152602001908152602001600020908051906020019061327c9291906136ca565b505050565b606060098054613290906140a4565b80601f01602080910402602001604051908101604052809291908181526020018280546132bc906140a4565b80156133095780601f106132de57610100808354040283529160200191613309565b820191906000526020600020905b8154815290600101906020018083116132ec57829003601f168201915b5050505050905090565b606061331e82612a92565b61335d576040517f08c379a000000000000000000000000000000000000000000000000000000000815260040161335490614c14565b60405180910390fd5b6000613367613281565b9050600081511161338757604051806020016040528060008152506133b2565b8061339184613556565b6040516020016133a292919061473a565b6040516020818303038152906040525b915050919050565b505050565b60006133e08473ffffffffffffffffffffffffffffffffffffffff166136b7565b15613549578373ffffffffffffffffffffffffffffffffffffffff1663150b7a02613409612afe565b8786866040518563ffffffff1660e01b815260040161342b9493929190614c89565b602060405180830381600087803b15801561344557600080fd5b505af192505050801561347657506040513d601f19601f820116820180604052508101906134739190614cea565b60015b6134f9573d80600081146134a6576040519150601f19603f3d011682016040523d82523d6000602084013e6134ab565b606091505b506000815114156134f1576040517f08c379a00000000000000000000000000000000000000000000000000000000081526004016134e890614a18565b60405180910390fd5b805181602001fd5b63150b7a0260e01b7bffffffffffffffffffffffffffffffffffffffffffffffffffffffff1916817bffffffffffffffffffffffffffffffffffffffffffffffffffffffff19161491505061354e565b600190505b949350505050565b6060600082141561359e576040518060400160405280600181526020017f300000000000000000000000000000000000000000000000000000000000000081525090506136b2565b600082905060005b600082146135d05780806135b990614493565b915050600a826135c991906143ed565b91506135a6565b60008167ffffffffffffffff8111156135ec576135eb613a56565b5b6040519080825280601f01601f19166020018201604052801561361e5781602001600182028036833780820191505090505b5090505b600085146136ab57600182613637919061438a565b9150600a856136469190614d17565b6030613652919061401f565b60f81b81838151811061366857613667614464565b5b60200101907effffffffffffffffffffffffffffffffffffffffffffffffffffffffffffff1916908160001a905350600a856136a491906143ed565b9450613622565b8093505050505b919050565b600080823b905060008111915050919050565b8280546136d6906140a4565b90600052602060002090601f0160209004810192826136f8576000855561373f565b82601f1061371157805160ff191683800117855561373f565b8280016001018555821561373f579182015b8281111561373e578251825591602001919060010190613723565b5b50905061374c9190613750565b5090565b5b80821115613769576000816000905550600101613751565b5090565b6000604051905090565b600080fd5b600080fd5b60007fffffffff0000000000000000000000000000000000000000000000000000000082169050919050565b6137b681613781565b81146137c157600080fd5b50565b6000813590506137d3816137ad565b92915050565b6000602082840312156137ef576137ee613777565b5b60006137fd848285016137c4565b91505092915050565b60008115159050919050565b61381b81613806565b82525050565b60006020820190506138366000830184613812565b92915050565b6000819050919050565b61384f8161383c565b811461385a57600080fd5b50565b60008135905061386c81613846565b92915050565b60006020828403121561388857613887613777565b5b60006138968482850161385d565b91505092915050565b6138a88161383c565b82525050565b60006020820190506138c3600083018461389f565b92915050565b600081519050919050565b600082825260208201905092915050565b60005b838110156139035780820151818401526020810190506138e8565b83811115613912576000848401525b50505050565b6000601f19601f8301169050919050565b6000613934826138c9565b61393e81856138d4565b935061394e8185602086016138e5565b61395781613918565b840191505092915050565b6000602082019050818103600083015261397c8184613929565b905092915050565b600073ffffffffffffffffffffffffffffffffffffffff82169050919050565b60006139af82613984565b9050919050565b6139bf816139a4565b82525050565b60006020820190506139da60008301846139b6565b92915050565b6139e9816139a4565b81146139f457600080fd5b50565b600081359050613a06816139e0565b92915050565b60008060408385031215613a2357613a22613777565b5b6000613a31858286016139f7565b9250506020613a428582860161385d565b9150509250929050565b600080fd5b600080fd5b7f4e487b7100000000000000000000000000000000000000000000000000000000600052604160045260246000fd5b613a8e82613918565b810181811067ffffffffffffffff82111715613aad57613aac613a56565b5b80604052505050565b6000613ac061376d565b9050613acc8282613a85565b919050565b600067ffffffffffffffff821115613aec57613aeb613a56565b5b613af582613918565b9050602081019050919050565b82818337600083830152505050565b6000613b24613b1f84613ad1565b613ab6565b905082815260208101848484011115613b4057613b3f613a51565b5b613b4b848285613b02565b509392505050565b600082601f830112613b6857613b67613a4c565b5b8135613b78848260208601613b11565b91505092915050565b600060208284031215613b9757613b96613777565b5b600082013567ffffffffffffffff811115613bb557613bb461377c565b5b613bc184828501613b53565b91505092915050565b613bd381613806565b8114613bde57600080fd5b50565b600081359050613bf081613bca565b92915050565b600060208284031215613c0c57613c0b613777565b5b6000613c1a84828501613be1565b91505092915050565b600080600060608486031215613c3c57613c3b613777565b5b6000613c4a868287016139f7565b9350506020613c5b868287016139f7565b9250506040613c6c8682870161385d565b9150509250925092565b600060208284031215613c8c57613c8b613777565b5b6000613c9a848285016139f7565b91505092915050565b600081519050919050565b600082825260208201905092915050565b6000819050602082019050919050565b613cd88161383c565b82525050565b6000613cea8383613ccf565b60208301905092915050565b6000602082019050919050565b6000613d0e82613ca3565b613d188185613cae565b9350613d2383613cbf565b8060005b83811015613d54578151613d3b8882613cde565b9750613d4683613cf6565b925050600181019050613d27565b5085935050505092915050565b60006020820190508181036000830152613d7b8184613d03565b905092915050565b60008060408385031215613d9a57613d99613777565b5b6000613da8858286016139f7565b9250506020613db985828601613be1565b9150509250929050565b600067ffffffffffffffff821115613dde57613ddd613a56565b5b613de782613918565b9050602081019050919050565b6000613e07613e0284613dc3565b613ab6565b905082815260208101848484011115613e2357613e22613a51565b5b613e2e848285613b02565b509392505050565b600082601f830112613e4b57613e4a613a4c565b5b8135613e5b848260208601613df4565b91505092915050565b60008060008060808587031215613e7e57613e7d613777565b5b6000613e8c878288016139f7565b9450506020613e9d878288016139f7565b9350506040613eae8782880161385d565b925050606085013567ffffffffffffffff811115613ecf57613ece61377c565b5b613edb87828801613e36565b91505092959194509250565b600080600060608486031215613f0057613eff613777565b5b6000613f0e8682870161385d565b9350506020613f1f8682870161385d565b925050604084013567ffffffffffffffff811115613f4057613f3f61377c565b5b613f4c86828701613b53565b9150509250925092565b60008060408385031215613f6d57613f6c613777565b5b6000613f7b858286016139f7565b9250506020613f8c858286016139f7565b9150509250929050565b7f4e487b7100000000000000000000000000000000000000000000000000000000600052601160045260246000fd5b6000613fd08261383c565b9150613fdb8361383c565b9250817fffffffffffffffffffffffffffffffffffffffffffffffffffffffffffffffff048311821515161561401457614013613f96565b5b828202905092915050565b600061402a8261383c565b91506140358361383c565b9250827fffffffffffffffffffffffffffffffffffffffffffffffffffffffffffffffff0382111561406a57614069613f96565b5b828201905092915050565b7f4e487b7100000000000000000000000000000000000000000000000000000000600052602260045260246000fd5b600060028204905060018216806140bc57607f821691505b602082108114156140d0576140cf614075565b5b50919050565b7f4552433732313a20617070726f76656420717565727920666f72206e6f6e657860008201527f697374656e7420746f6b656e0000000000000000000000000000000000000000602082015250565b6000614132602c836138d4565b915061413d826140d6565b604082019050919050565b6000602082019050818103600083015261416181614125565b9050919050565b7f4552433732313a20617070726f76616c20746f2063757272656e74206f776e6560008201527f7200000000000000000000000000000000000000000000000000000000000000602082015250565b60006141c46021836138d4565b91506141cf82614168565b604082019050919050565b600060208201905081810360008301526141f3816141b7565b9050919050565b7f4552433732313a20617070726f76652063616c6c6572206973206e6f74206f7760008201527f6e6572206e6f7220617070726f76656420666f7220616c6c0000000000000000602082015250565b60006142566038836138d4565b9150614261826141fa565b604082019050919050565b6000602082019050818103600083015261428581614249565b9050919050565b7f4f776e61626c653a2063616c6c6572206973206e6f7420746865206f776e6572600082015250565b60006142c26020836138d4565b91506142cd8261428c565b602082019050919050565b600060208201905081810360008301526142f1816142b5565b9050919050565b7f4552433732313a207472616e736665722063616c6c6572206973206e6f74206f60008201527f776e6572206e6f7220617070726f766564000000000000000000000000000000602082015250565b60006143546031836138d4565b915061435f826142f8565b604082019050919050565b6000602082019050818103600083015261438381614347565b9050919050565b60006143958261383c565b91506143a08361383c565b9250828210156143b3576143b2613f96565b5b828203905092915050565b7f4e487b7100000000000000000000000000000000000000000000000000000000600052601260045260246000fd5b60006143f88261383c565b91506144038361383c565b925082614413576144126143be565b5b828204905092915050565b600081905092915050565b50565b600061443960008361441e565b915061444482614429565b600082019050919050565b600061445a8261442c565b9150819050919050565b7f4e487b7100000000000000000000000000000000000000000000000000000000600052603260045260246000fd5b600061449e8261383c565b91507fffffffffffffffffffffffffffffffffffffffffffffffffffffffffffffffff8214156144d1576144d0613f96565b5b600182019050919050565b7f4552433732313a206f776e657220717565727920666f72206e6f6e657869737460008201527f656e7420746f6b656e0000000000000000000000000000000000000000000000602082015250565b60006145386029836138d4565b9150614543826144dc565b604082019050919050565b600060208201905081810360008301526145678161452b565b9050919050565b7f4552433732313a2062616c616e636520717565727920666f7220746865207a6560008201527f726f206164647265737300000000000000000000000000000000000000000000602082015250565b60006145ca602a836138d4565b91506145d58261456e565b604082019050919050565b600060208201905081810360008301526145f9816145bd565b9050919050565b7f4552433732313a20617070726f766520746f2063616c6c657200000000000000600082015250565b60006146366019836138d4565b915061464182614600565b602082019050919050565b6000602082019050818103600083015261466581614629565b9050919050565b7f45524337323155524953746f726167653a2055524920717565727920666f722060008201527f6e6f6e6578697374656e7420746f6b656e000000000000000000000000000000602082015250565b60006146c86031836138d4565b91506146d38261466c565b604082019050919050565b600060208201905081810360008301526146f7816146bb565b9050919050565b600081905092915050565b6000614714826138c9565b61471e81856146fe565b935061472e8185602086016138e5565b80840191505092915050565b60006147468285614709565b91506147528284614709565b91508190509392505050565b7f4f776e61626c653a206e6577206f776e657220697320746865207a65726f206160008201527f6464726573730000000000000000000000000000000000000000000000000000602082015250565b60006147ba6026836138d4565b91506147c58261475e565b604082019050919050565b600060208201905081810360008301526147e9816147ad565b9050919050565b7f4552433732313a206f70657261746f7220717565727920666f72206e6f6e657860008201527f697374656e7420746f6b656e0000000000000000000000000000000000000000602082015250565b600061484c602c836138d4565b9150614857826147f0565b604082019050919050565b6000602082019050818103600083015261487b8161483f565b9050919050565b7f4552433732313a207472616e73666572206f6620746f6b656e2074686174206960008201527f73206e6f74206f776e0000000000000000000000000000000000000000000000602082015250565b60006148de6029836138d4565b91506148e982614882565b604082019050919050565b6000602082019050818103600083015261490d816148d1565b9050919050565b7f4552433732313a207472616e7366657220746f20746865207a65726f2061646460008201527f7265737300000000000000000000000000000000000000000000000000000000602082015250565b60006149706024836138d4565b915061497b82614914565b604082019050919050565b6000602082019050818103600083015261499f81614963565b9050919050565b7f4552433732313a207472616e7366657220746f206e6f6e20455243373231526560008201527f63656976657220696d706c656d656e7465720000000000000000000000000000602082015250565b6000614a026032836138d4565b9150614a0d826149a6565b604082019050919050565b60006020820190508181036000830152614a31816149f5565b9050919050565b7f4552433732313a206d696e7420746f20746865207a65726f2061646472657373600082015250565b6000614a6e6020836138d4565b9150614a7982614a38565b602082019050919050565b60006020820190508181036000830152614a9d81614a61565b9050919050565b7f4552433732313a20746f6b656e20616c7265616479206d696e74656400000000600082015250565b6000614ada601c836138d4565b9150614ae582614aa4565b602082019050919050565b60006020820190508181036000830152614b0981614acd565b9050919050565b7f45524337323155524953746f726167653a2055524920736574206f66206e6f6e60008201527f6578697374656e7420746f6b656e000000000000000000000000000000000000602082015250565b6000614b6c602e836138d4565b9150614b7782614b10565b604082019050919050565b60006020820190508181036000830152614b9b81614b5f565b9050919050565b7f4552433732314d657461646174613a2055524920717565727920666f72206e6f60008201527f6e6578697374656e7420746f6b656e0000000000000000000000000000000000602082015250565b6000614bfe602f836138d4565b9150614c0982614ba2565b604082019050919050565b60006020820190508181036000830152614c2d81614bf1565b9050919050565b600081519050919050565b600082825260208201905092915050565b6000614c5b82614c34565b614c658185614c3f565b9350614c758185602086016138e5565b614c7e81613918565b840191505092915050565b6000608082019050614c9e60008301876139b6565b614cab60208301866139b6565b614cb8604083018561389f565b8181036060830152614cca8184614c50565b905095945050505050565b600081519050614ce4816137ad565b92915050565b600060208284031215614d0057614cff613777565b5b6000614d0e84828501614cd5565b91505092915050565b6000614d228261383c565b9150614d2d8361383c565b925082614d3d57614d3c6143be565b5b82820690509291505056fea2646970667358221220542eba421504831cda3012f7186b9f18031257cb587196687fbfe5a4d3d9122b64736f6c63430008090033",
  "immutableReferences": {},
  "source": "// SPDX-License-Identifier: MIT\r\n\r\n// \r\n/* \r\n by Tom trba 2022\r\n\r\n this contract is free to use for all,\r\n it is showcasing the transparency/realness what will happen with your donations (fully donated to organizations)\r\n*/\r\n\r\npragma solidity ^0.8.0;\r\n\r\nimport \"@openzeppelin/contracts/token/ERC721/extensions/ERC721URIStorage.sol\";\r\nimport \"@openzeppelin/contracts/token/ERC721/ERC721.sol\";\r\nimport \"@openzeppelin/contracts/utils/Counters.sol\";\r\nimport \"@openzeppelin/contracts/access/Ownable.sol\";\r\n\r\ncontract RoDsc is ERC721URIStorage, Ownable {\r\n  using Strings for uint256;\r\n  using Counters for Counters.Counter;\r\n\r\n Counters.Counter private _tokenIds;\r\n\r\n// TO DO\r\n  string public uriPrefix = \"\";\r\n  string public uriSuffix = \".json\";\r\n  string public hiddenMetadataUri;\r\n  \r\n  uint256 public gasFee = 0.2 ether;\r\n  string public data;\r\n  uint256 public minCost = 0.01 ether; //min. cena, cena bude dobrovoln\r\n  uint256 public maxNFTs = 350; //poet NFT v kolekcii\r\n  uint256 public maxMintAmountPerTx = 10; //maximum poet NFT z adresy\r\n\r\n  bool public paused = true; // pauza na kontrakt\r\n  bool public revealed = true; // bola u kolekcia revealnuta?\r\n\r\n  address[] public orgAddresses = [0x943590A42C27D08e3744202c4Ae5eD55c2dE240D,0x943590A42C27D08e3744202c4Ae5eD55c2dE240D,0x943590A42C27D08e3744202c4Ae5eD55c2dE240D,0x943590A42C27D08e3744202c4Ae5eD55c2dE240D];\r\n  uint256[] public orgEtherDonations = [0 ether,0 ether,0 ether,0 ether]; //toto asi nepojde\r\n\r\n  address public org1 = 0x6869B06df899808cbb20e8D3231A554d4D45F956;\r\n  uint public  org1eth = 0.00 wei;\r\n  address public org2 = 0xf85b166C5Cf2E513104643B4C100F4D2116CA080;\r\n  uint public org2eth = 0.00 wei;\r\n  address public org3 = 0x0f9640c0915D4b5Ef8c38f632B62C7718F2D4089;\r\n  uint public org3eth = 0.00 wei;\r\n  address public org4 = 0xe13BADF08279a20550cF69483C5f498eF24efD54;\r\n  uint public org4eth = 0.00 wei;\r\n\r\n  constructor() ERC721(\"Revenge of Dogos\", \"RoD\") {\r\n    //setHiddenMetadataUri(\"ipfs://__CID__/hidden.json\"); // treba zmeni \r\n  }\r\n\r\n  \r\n// public\r\n  function mint(uint donationAmount,uint256 orgPick,string memory tokenURI) public payable returns (uint256) { //mono dorobi address recipienta\r\n    //uint256 supply = totalSupply();\r\n    //require(!paused); //nesmie by kontrakt pauznuty\r\n    if(_tokenIds.current() < 350){ //ak je tokenov menej ako 350, tak mome vytvara nove tokeny (NFT)\r\n      require(_tokenIds.current() < maxNFTs); //poet aktualne mintnutych NFT musi by men ako poet kolekcie\r\n\r\n      require(msg.value >= minCost); //platba minCost za NFT , msg value musi ist zo stranky\r\n\r\n      if(orgPick == 1)\r\n      {\r\n        //org1eth = org1eth + donationAmount;\r\n        org1eth = setOrg1(donationAmount);\r\n      }else if(orgPick == 2){\r\n        //org2eth = org2eth + donationAmount;\r\n        org2eth = setOrg2(donationAmount);\r\n      }else if(orgPick == 3){\r\n        //org3eth = org3eth + donationAmount;\r\n        org3eth = setOrg3(donationAmount);\r\n      }else if(orgPick == 4){\r\n        //org4eth = org4eth + donationAmount;\r\n        setOrg4(donationAmount);\r\n      }\r\n\r\n\r\n      _tokenIds.increment(); //+1 nft\r\n      uint256 newItemId = _tokenIds.current(); // konkretne nove NFT uloime do premennej\r\n      _mint(msg.sender, newItemId); //mintnutie NFT na adresu msg sender, o je adresa kupujuceho //sem tie recipient namiesto msg.sender\r\n      _setTokenURI(newItemId, tokenURI); //pridame naemu NFT tokenURI-> ipfs pinata link na metadata nasho NFT, medzi ktorymi najdeme aj link na img\r\n\r\n      return newItemId;\r\n\r\n      /*\r\n      if (msg.sender != owner()) {\r\n          if(whitelisted[msg.sender] != true) {\r\n            require(msg.value >= cost * _mintAmount);\r\n          }\r\n      }\r\n\r\n      for (uint256 i = 1; i <= _mintAmount; i++) {\r\n        _safeMint(_to, supply + i);\r\n      }*/\r\n    }\r\n    else{\r\n      return 0;\r\n    }\r\n  }\r\n\r\n//only owner\r\nfunction withdraw() public  {\r\n\r\n    (bool orgs1, ) = payable(org1).call{value: address(this).balance * (org1eth - gasFee) / 100}(\"\");\r\n    require(orgs1);\r\n    \r\n    (bool orgs2, ) = payable(org2).call{value:  address(this).balance * (org2eth - gasFee) / 100 }(\"\");\r\n    require(orgs2);\r\n\r\n    (bool orgs3, ) = payable(org3).call{value: address(this).balance * (org3eth - gasFee) / 100}(\"\");\r\n    require(orgs3);\r\n\r\n    (bool orgs4, ) = payable(org4).call{value:  address(this).balance * (org4eth - gasFee) / 100 }(\"\");\r\n    require(orgs4);\r\n    /*\r\n    // Poslanie 5 % z celkovych eth z adresy kontraktu na adresu v payable\r\n    // =============================================================================\r\n    (bool hs, ) = payable(0x943590A42C27D08e3744202c4Ae5eD55c2dE240D).call{value: address(this).balance * 5 / 100}(\"\");\r\n    require(hs);\r\n    // =============================================================================\r\n\r\n    // vyplatenie ownerovi kontraktu celu sumu ,o je na adrese kontraktu\r\n    // =============================================================================\r\n    (bool os, ) = payable(owner()).call{value: address(this).balance}(\"\");\r\n    require(os);\r\n    // =============================================================================*/\r\n  }\r\nfunction withdraw2() public onlyOwner {\r\n    // vyplatenie ownerovi kontraktu celu sumu ,o je na adrese kontraktu\r\n    // =============================================================================\r\n    (bool os, ) = payable(org1).call{value: address(this).balance - org2eth - org3eth - org4eth - gasFee}(\"\");\r\n    require(os);\r\n    //setNullOrg1(); //treba vynulova peniaze, lebo sme ich u vratili\r\n\r\n    (bool hs, ) = payable(org2).call{value:  address(this).balance  - org3eth - org4eth - gasFee}(\"\");\r\n    require(hs);\r\n    \r\n    \r\n    (bool orgs3, ) = payable(org3).call{value: address(this).balance  - org4eth - gasFee}(\"\");\r\n    require(orgs3);\r\n\r\n    (bool orgs4, ) = payable(org4).call{value:  address(this).balance  - gasFee}(\"\");\r\n    require(orgs4);\r\n\r\n    setNullOrgs();\r\n    // =============================================================================*/\r\n  }\r\n\r\n\r\n\r\n    function getData() view external returns(string memory) {\r\n\r\n        return data;\r\n    }\r\n\r\nfunction emergencyWithdraw() public onlyOwner {\r\n    // vyplatenie ownerovi kontraktu celu sumu ,o je na adrese kontraktu\r\n    // =============================================================================\r\n    (bool os, ) = payable(owner()).call{value: address(this).balance}(\"\");\r\n    require(os);\r\n    // =============================================================================*/\r\n  }\r\n   \r\n   /*\r\n  function totalSupply() public view returns (uint256) {\r\n    return supply.current();\r\n  }*/\r\n\r\n  function setCost(uint256 _newCost) public onlyOwner  {\r\n      minCost = _newCost;\r\n    }\r\n    function setOrg1(uint _newCost) public returns (uint) {\r\n      org1eth =  org1eth + (1 wei * _newCost);\r\n      return org1eth;\r\n    }\r\n  function setOrg2(uint _newCost) public  returns (uint) {\r\n      org2eth =  org2eth + (1 wei * _newCost);\r\n      return org2eth;\r\n    }\r\n    function setOrg3(uint _newCost) public  returns (uint) {\r\n      org3eth =  org3eth + (1 wei * _newCost);\r\n      return org3eth;\r\n    }\r\n    function setOrg4(uint _newCost) public  {\r\n      org4eth += 1 wei * _newCost;\r\n    }\r\n  function setNullOrg1() public {\r\n     org1eth = 0 ether;\r\n  }\r\n  function setNullOrgs() public{\r\n    org1eth = 0 wei;org2eth = 0 wei;org3eth = 0 wei;org4eth = 0 wei;\r\n  }\r\n  function setMaxMintAmountPerTx(uint256 _maxMintAmountPerTx) public onlyOwner {\r\n      maxMintAmountPerTx = _maxMintAmountPerTx;\r\n    }\r\n\r\n  function setRevealed(bool _state) public onlyOwner {\r\n    revealed = _state;\r\n  }\r\n\r\n  function setPaused(bool _state) public onlyOwner {\r\n      paused = _state;\r\n    }\r\n\r\n  //asi nebudeme potrebovat - whitelistuje userov, ktory mozu mintovat\r\n  /*\r\n  function whitelistUser(address _user) public onlyOwner {\r\n    whitelisted[_user] = true;\r\n  }\r\n \r\n  function removeWhitelistUser(address _user) public onlyOwner {\r\n    whitelisted[_user] = false;\r\n  }\r\n  */\r\n\r\n  function setHiddenMetadataUri(string memory _hiddenMetadataUri) public onlyOwner {\r\n    hiddenMetadataUri = _hiddenMetadataUri;\r\n  }\r\n\r\n  function setUriPrefix(string memory _uriPrefix) public onlyOwner {\r\n    uriPrefix = _uriPrefix;\r\n  }\r\n\r\n  function setUriSuffix(string memory _uriSuffix) public onlyOwner {\r\n    uriSuffix = _uriSuffix;\r\n  }\r\n\r\n  \r\n  function _baseURI() internal view virtual override returns (string memory) {\r\n    return uriPrefix;\r\n  }\r\n  \r\n  /*\r\n  function setBaseURI(string memory _newBaseURI) public onlyOwner {\r\n      baseURI = _newBaseURI;\r\n    }\r\n\r\n    function setBaseExtension(string memory _newBaseExtension) public onlyOwner {\r\n      baseExtension = _newBaseExtension;\r\n    }*/\r\n\r\n  function walletOfOwner(address _owner)\r\n    public\r\n    view\r\n    returns (uint256[] memory)\r\n  {\r\n    uint256 ownerTokenCount = balanceOf(_owner);\r\n    uint256[] memory ownedTokenIds = new uint256[](ownerTokenCount);\r\n    uint256 currentTokenId = 1;\r\n    uint256 ownedTokenIndex = 0;\r\n\r\n    while (ownedTokenIndex < ownerTokenCount && currentTokenId <= maxNFTs) {\r\n      address currentTokenOwner = ownerOf(currentTokenId);\r\n\r\n      if (currentTokenOwner == _owner) {\r\n        ownedTokenIds[ownedTokenIndex] = currentTokenId;\r\n\r\n        ownedTokenIndex++;\r\n      }\r\n\r\n      currentTokenId++;\r\n    }\r\n\r\n    return ownedTokenIds;\r\n  }\r\n\r\n/*\r\n  function tokenURI(uint256 _tokenId)\r\n    public\r\n    view\r\n    virtual\r\n    override\r\n    returns (string memory)\r\n  {\r\n    require(\r\n      _exists(_tokenId),\r\n      \"ERC721Metadata: URI query for nonexistent token\"\r\n    );\r\n\r\n    if (revealed == false) {\r\n      return hiddenMetadataUri;\r\n    }\r\n\r\n    string memory currentBaseURI = _baseURI();\r\n    return bytes(currentBaseURI).length > 0\r\n        ? string(abi.encodePacked(currentBaseURI, _tokenId.toString(), uriSuffix))\r\n        : \"\";\r\n  }\r\n*/\r\n}",
  "sourcePath": "C:\\Users\\tomik\\Desktop\\Skola\\Diplomova Praca\\VSCsol\\contracts\\RoDsmart.sol",
  "compiler": {
    "name": "solc",
    "version": "0.8.9+commit.e5eed63a.Emscripten.clang"
  },
  "schemaVersion": "3.4.3",
  "updatedAt": "2022-03-14T18:22:16.267Z",
  "networkType": "ethereum",
  "devdoc": {
    "kind": "dev",
    "methods": {
      "approve(address,uint256)": {
        "details": "See {IERC721-approve}."
      },
      "balanceOf(address)": {
        "details": "See {IERC721-balanceOf}."
      },
      "getApproved(uint256)": {
        "details": "See {IERC721-getApproved}."
      },
      "isApprovedForAll(address,address)": {
        "details": "See {IERC721-isApprovedForAll}."
      },
      "name()": {
        "details": "See {IERC721Metadata-name}."
      },
      "owner()": {
        "details": "Returns the address of the current owner."
      },
      "ownerOf(uint256)": {
        "details": "See {IERC721-ownerOf}."
      },
      "renounceOwnership()": {
        "details": "Leaves the contract without owner. It will not be possible to call `onlyOwner` functions anymore. Can only be called by the current owner. NOTE: Renouncing ownership will leave the contract without an owner, thereby removing any functionality that is only available to the owner."
      },
      "safeTransferFrom(address,address,uint256)": {
        "details": "See {IERC721-safeTransferFrom}."
      },
      "safeTransferFrom(address,address,uint256,bytes)": {
        "details": "See {IERC721-safeTransferFrom}."
      },
      "setApprovalForAll(address,bool)": {
        "details": "See {IERC721-setApprovalForAll}."
      },
      "supportsInterface(bytes4)": {
        "details": "See {IERC165-supportsInterface}."
      },
      "symbol()": {
        "details": "See {IERC721Metadata-symbol}."
      },
      "tokenURI(uint256)": {
        "details": "See {IERC721Metadata-tokenURI}."
      },
      "transferFrom(address,address,uint256)": {
        "details": "See {IERC721-transferFrom}."
      },
      "transferOwnership(address)": {
        "details": "Transfers ownership of the contract to a new account (`newOwner`). Can only be called by the current owner."
      }
    },
    "version": 1
  },
  "userdoc": {
    "kind": "user",
    "methods": {},
    "version": 1
  }
}