{
  "contractName": "PictureLicense",
  "abi": [
    {
      "inputs": [],
      "stateMutability": "nonpayable",
      "type": "constructor"
    },
    {
      "anonymous": false,
      "inputs": [
        {
          "indexed": true,
          "internalType": "address",
          "name": "owner",
          "type": "address"
        },
        {
          "indexed": true,
          "internalType": "address",
          "name": "approved",
          "type": "address"
        },
        {
          "indexed": true,
          "internalType": "uint256",
          "name": "tokenId",
          "type": "uint256"
        }
      ],
      "name": "Approval",
      "type": "event"
    },
    {
      "anonymous": false,
      "inputs": [
        {
          "indexed": true,
          "internalType": "address",
          "name": "owner",
          "type": "address"
        },
        {
          "indexed": true,
          "internalType": "address",
          "name": "operator",
          "type": "address"
        },
        {
          "indexed": false,
          "internalType": "bool",
          "name": "approved",
          "type": "bool"
        }
      ],
      "name": "ApprovalForAll",
      "type": "event"
    },
    {
      "anonymous": false,
      "inputs": [
        {
          "indexed": true,
          "internalType": "address",
          "name": "from",
          "type": "address"
        },
        {
          "indexed": true,
          "internalType": "address",
          "name": "to",
          "type": "address"
        },
        {
          "indexed": true,
          "internalType": "uint256",
          "name": "tokenId",
          "type": "uint256"
        }
      ],
      "name": "Transfer",
      "type": "event"
    },
    {
      "inputs": [
        {
          "internalType": "address",
          "name": "to",
          "type": "address"
        },
        {
          "internalType": "uint256",
          "name": "tokenId",
          "type": "uint256"
        }
      ],
      "name": "approve",
      "outputs": [],
      "stateMutability": "nonpayable",
      "type": "function"
    },
    {
      "inputs": [
        {
          "internalType": "address",
          "name": "owner",
          "type": "address"
        }
      ],
      "name": "balanceOf",
      "outputs": [
        {
          "internalType": "uint256",
          "name": "",
          "type": "uint256"
        }
      ],
      "stateMutability": "view",
      "type": "function",
      "constant": true
    },
    {
      "inputs": [
        {
          "internalType": "uint256",
          "name": "tokenId",
          "type": "uint256"
        }
      ],
      "name": "getApproved",
      "outputs": [
        {
          "internalType": "address",
          "name": "",
          "type": "address"
        }
      ],
      "stateMutability": "view",
      "type": "function",
      "constant": true
    },
    {
      "inputs": [
        {
          "internalType": "address",
          "name": "owner",
          "type": "address"
        },
        {
          "internalType": "address",
          "name": "operator",
          "type": "address"
        }
      ],
      "name": "isApprovedForAll",
      "outputs": [
        {
          "internalType": "bool",
          "name": "",
          "type": "bool"
        }
      ],
      "stateMutability": "view",
      "type": "function",
      "constant": true
    },
    {
      "inputs": [],
      "name": "name",
      "outputs": [
        {
          "internalType": "string",
          "name": "",
          "type": "string"
        }
      ],
      "stateMutability": "view",
      "type": "function",
      "constant": true
    },
    {
      "inputs": [
        {
          "internalType": "uint256",
          "name": "tokenId",
          "type": "uint256"
        }
      ],
      "name": "ownerOf",
      "outputs": [
        {
          "internalType": "address",
          "name": "",
          "type": "address"
        }
      ],
      "stateMutability": "view",
      "type": "function",
      "constant": true
    },
    {
      "inputs": [
        {
          "internalType": "address",
          "name": "from",
          "type": "address"
        },
        {
          "internalType": "address",
          "name": "to",
          "type": "address"
        },
        {
          "internalType": "uint256",
          "name": "tokenId",
          "type": "uint256"
        }
      ],
      "name": "safeTransferFrom",
      "outputs": [],
      "stateMutability": "nonpayable",
      "type": "function"
    },
    {
      "inputs": [
        {
          "internalType": "address",
          "name": "from",
          "type": "address"
        },
        {
          "internalType": "address",
          "name": "to",
          "type": "address"
        },
        {
          "internalType": "uint256",
          "name": "tokenId",
          "type": "uint256"
        },
        {
          "internalType": "bytes",
          "name": "_data",
          "type": "bytes"
        }
      ],
      "name": "safeTransferFrom",
      "outputs": [],
      "stateMutability": "nonpayable",
      "type": "function"
    },
    {
      "inputs": [
        {
          "internalType": "address",
          "name": "operator",
          "type": "address"
        },
        {
          "internalType": "bool",
          "name": "approved",
          "type": "bool"
        }
      ],
      "name": "setApprovalForAll",
      "outputs": [],
      "stateMutability": "nonpayable",
      "type": "function"
    },
    {
      "inputs": [
        {
          "internalType": "bytes4",
          "name": "interfaceId",
          "type": "bytes4"
        }
      ],
      "name": "supportsInterface",
      "outputs": [
        {
          "internalType": "bool",
          "name": "",
          "type": "bool"
        }
      ],
      "stateMutability": "view",
      "type": "function",
      "constant": true
    },
    {
      "inputs": [],
      "name": "symbol",
      "outputs": [
        {
          "internalType": "string",
          "name": "",
          "type": "string"
        }
      ],
      "stateMutability": "view",
      "type": "function",
      "constant": true
    },
    {
      "inputs": [
        {
          "internalType": "uint256",
          "name": "tokenId",
          "type": "uint256"
        }
      ],
      "name": "tokenURI",
      "outputs": [
        {
          "internalType": "string",
          "name": "",
          "type": "string"
        }
      ],
      "stateMutability": "view",
      "type": "function",
      "constant": true
    },
    {
      "inputs": [
        {
          "internalType": "address",
          "name": "from",
          "type": "address"
        },
        {
          "internalType": "address",
          "name": "to",
          "type": "address"
        },
        {
          "internalType": "uint256",
          "name": "tokenId",
          "type": "uint256"
        }
      ],
      "name": "transferFrom",
      "outputs": [],
      "stateMutability": "nonpayable",
      "type": "function"
    },
    {
      "inputs": [
        {
          "internalType": "address",
          "name": "newOwnerAdress",
          "type": "address"
        },
        {
          "internalType": "string",
          "name": "tokenURI",
          "type": "string"
        }
      ],
      "name": "awardLicense",
      "outputs": [
        {
          "internalType": "uint256",
          "name": "",
          "type": "uint256"
        }
      ],
      "stateMutability": "payable",
      "type": "function",
      "payable": true
    },
    {
      "inputs": [],
      "name": "getTokenIds",
      "outputs": [
        {
          "components": [
            {
              "internalType": "uint256",
              "name": "_value",
              "type": "uint256"
            }
          ],
          "internalType": "struct Counters.Counter",
          "name": "",
          "type": "tuple"
        }
      ],
      "stateMutability": "view",
      "type": "function",
      "constant": true
    },
    {
      "inputs": [
        {
          "internalType": "address",
          "name": "newOwnerAdress",
          "type": "address"
        }
      ],
      "name": "getBalance",
      "outputs": [
        {
          "internalType": "uint256",
          "name": "",
          "type": "uint256"
        }
      ],
      "stateMutability": "view",
      "type": "function",
      "constant": true
    },
    {
      "inputs": [
        {
          "internalType": "address payable",
          "name": "recipient",
          "type": "address"
        }
      ],
      "name": "sendEther",
      "outputs": [],
      "stateMutability": "nonpayable",
      "type": "function"
    }
  ],
  "bytecode": "0x60806040523480156200001157600080fd5b506040518060400160405280600e81526020017f506963747572654c6963656e73650000000000000000000000000000000000008152506040518060400160405280600381526020017f4c43530000000000000000000000000000000000000000000000000000000000815250816000908051906020019062000096929190620000b8565b508060019080519060200190620000af929190620000b8565b505050620001cd565b828054620000c69062000197565b90600052602060002090601f016020900481019282620000ea576000855562000136565b82601f106200010557805160ff191683800117855562000136565b8280016001018555821562000136579182015b828111156200013557825182559160200191906001019062000118565b5b50905062000145919062000149565b5090565b5b80821115620001645760008160009055506001016200014a565b5090565b7f4e487b7100000000000000000000000000000000000000000000000000000000600052602260045260246000fd5b60006002820490506001821680620001b057607f821691505b60208210811415620001c757620001c662000168565b5b50919050565b612eec80620001dd6000396000f3fe6080604052600436106100fe5760003560e01c806367f718a911610095578063a22cb46511610064578063a22cb4651461034c578063b88d4fde14610375578063c87b56dd1461039e578063e985e9c5146103db578063f8b2cb4f14610418576100fe565b806367f718a9146102895780636ffdabf2146102b457806370a08231146102e457806395d89b4114610321576100fe565b806323b872dd116100d157806323b872dd146101d157806342842e0e146101fa57806348c981e2146102235780636352211e1461024c576100fe565b806301ffc9a71461010357806306fdde0314610140578063081812fc1461016b578063095ea7b3146101a8575b600080fd5b34801561010f57600080fd5b5061012a60048036038101906101259190611b9d565b610455565b6040516101379190611be5565b60405180910390f35b34801561014c57600080fd5b50610155610537565b6040516101629190611c99565b60405180910390f35b34801561017757600080fd5b50610192600480360381019061018d9190611cf1565b6105c9565b60405161019f9190611d5f565b60405180910390f35b3480156101b457600080fd5b506101cf60048036038101906101ca9190611da6565b61064e565b005b3480156101dd57600080fd5b506101f860048036038101906101f39190611de6565b610766565b005b34801561020657600080fd5b50610221600480360381019061021c9190611de6565b6107c6565b005b34801561022f57600080fd5b5061024a60048036038101906102459190611e77565b6107e6565b005b34801561025857600080fd5b50610273600480360381019061026e9190611cf1565b610838565b6040516102809190611d5f565b60405180910390f35b34801561029557600080fd5b5061029e6108ea565b6040516102ab9190611ecf565b60405180910390f35b6102ce60048036038101906102c9919061201f565b61090e565b6040516102db919061208a565b60405180910390f35b3480156102f057600080fd5b5061030b600480360381019061030691906120a5565b610977565b604051610318919061208a565b60405180910390f35b34801561032d57600080fd5b50610336610a2f565b6040516103439190611c99565b60405180910390f35b34801561035857600080fd5b50610373600480360381019061036e91906120fe565b610ac1565b005b34801561038157600080fd5b5061039c600480360381019061039791906121df565b610c42565b005b3480156103aa57600080fd5b506103c560048036038101906103c09190611cf1565b610ca4565b6040516103d29190611c99565b60405180910390f35b3480156103e757600080fd5b5061040260048036038101906103fd9190612262565b610df6565b60405161040f9190611be5565b60405180910390f35b34801561042457600080fd5b5061043f600480360381019061043a91906120a5565b610e8a565b60405161044c919061208a565b60405180910390f35b60007f80ac58cd000000000000000000000000000000000000000000000000000000007bffffffffffffffffffffffffffffffffffffffffffffffffffffffff1916827bffffffffffffffffffffffffffffffffffffffffffffffffffffffff1916148061052057507f5b5e139f000000000000000000000000000000000000000000000000000000007bffffffffffffffffffffffffffffffffffffffffffffffffffffffff1916827bffffffffffffffffffffffffffffffffffffffffffffffffffffffff1916145b80610530575061052f82610ea1565b5b9050919050565b606060008054610546906122d1565b80601f0160208091040260200160405190810160405280929190818152602001828054610572906122d1565b80156105bf5780601f10610594576101008083540402835291602001916105bf565b820191906000526020600020905b8154815290600101906020018083116105a257829003601f168201915b5050505050905090565b60006105d482610f0b565b610613576040517f08c379a000000000000000000000000000000000000000000000000000000000815260040161060a90612375565b60405180910390fd5b6004600083815260200190815260200160002060009054906101000a900473ffffffffffffffffffffffffffffffffffffffff169050919050565b600061065982610838565b90508073ffffffffffffffffffffffffffffffffffffffff168373ffffffffffffffffffffffffffffffffffffffff1614156106ca576040517f08c379a00000000000000000000000000000000000000000000000000000000081526004016106c190612407565b60405180910390fd5b8073ffffffffffffffffffffffffffffffffffffffff166106e9610f77565b73ffffffffffffffffffffffffffffffffffffffff161480610718575061071781610712610f77565b610df6565b5b610757576040517f08c379a000000000000000000000000000000000000000000000000000000000815260040161074e90612499565b60405180910390fd5b6107618383610f7f565b505050565b610777610771610f77565b82611038565b6107b6576040517f08c379a00000000000000000000000000000000000000000000000000000000081526004016107ad9061252b565b60405180910390fd5b6107c1838383611116565b505050565b6107e183838360405180602001604052806000815250610c42565b505050565b8073ffffffffffffffffffffffffffffffffffffffff166108fc670de0b6b3a76400009081150290604051600060405180830381858888f19350505050158015610834573d6000803e3d6000fd5b5050565b6000806002600084815260200190815260200160002060009054906101000a900473ffffffffffffffffffffffffffffffffffffffff169050600073ffffffffffffffffffffffffffffffffffffffff168173ffffffffffffffffffffffffffffffffffffffff1614156108e1576040517f08c379a00000000000000000000000000000000000000000000000000000000081526004016108d8906125bd565b60405180910390fd5b80915050919050565b6108f2611a7b565b6007604051806020016040529081600082015481525050905090565b6000600261091c6007611372565b101561096c57670de0b6b3a764000034101561093757600080fd5b6109416007611380565b600061094d6007611372565b90506109598482611396565b61096381846113b4565b80915050610971565b600090505b92915050565b60008073ffffffffffffffffffffffffffffffffffffffff168273ffffffffffffffffffffffffffffffffffffffff1614156109e8576040517f08c379a00000000000000000000000000000000000000000000000000000000081526004016109df9061264f565b60405180910390fd5b600360008373ffffffffffffffffffffffffffffffffffffffff1673ffffffffffffffffffffffffffffffffffffffff168152602001908152602001600020549050919050565b606060018054610a3e906122d1565b80601f0160208091040260200160405190810160405280929190818152602001828054610a6a906122d1565b8015610ab75780601f10610a8c57610100808354040283529160200191610ab7565b820191906000526020600020905b815481529060010190602001808311610a9a57829003601f168201915b5050505050905090565b610ac9610f77565b73ffffffffffffffffffffffffffffffffffffffff168273ffffffffffffffffffffffffffffffffffffffff161415610b37576040517f08c379a0000000000000000000000000000000000000000000000000000000008152600401610b2e906126bb565b60405180910390fd5b8060056000610b44610f77565b73ffffffffffffffffffffffffffffffffffffffff1673ffffffffffffffffffffffffffffffffffffffff16815260200190815260200160002060008473ffffffffffffffffffffffffffffffffffffffff1673ffffffffffffffffffffffffffffffffffffffff16815260200190815260200160002060006101000a81548160ff0219169083151502179055508173ffffffffffffffffffffffffffffffffffffffff16610bf1610f77565b73ffffffffffffffffffffffffffffffffffffffff167f17307eab39ab6107e8899845ad3d59bd9653f200f220920489ca2b5937696c3183604051610c369190611be5565b60405180910390a35050565b610c53610c4d610f77565b83611038565b610c92576040517f08c379a0000000000000000000000000000000000000000000000000000000008152600401610c899061252b565b60405180910390fd5b610c9e84848484611428565b50505050565b6060610caf82610f0b565b610cee576040517f08c379a0000000000000000000000000000000000000000000000000000000008152600401610ce59061274d565b60405180910390fd5b6000600660008481526020019081526020016000208054610d0e906122d1565b80601f0160208091040260200160405190810160405280929190818152602001828054610d3a906122d1565b8015610d875780601f10610d5c57610100808354040283529160200191610d87565b820191906000526020600020905b815481529060010190602001808311610d6a57829003601f168201915b505050505090506000610d98611484565b9050600081511415610dae578192505050610df1565b600082511115610de3578082604051602001610dcb9291906127a9565b60405160208183030381529060405292505050610df1565b610dec8461149b565b925050505b919050565b6000600560008473ffffffffffffffffffffffffffffffffffffffff1673ffffffffffffffffffffffffffffffffffffffff16815260200190815260200160002060008373ffffffffffffffffffffffffffffffffffffffff1673ffffffffffffffffffffffffffffffffffffffff16815260200190815260200160002060009054906101000a900460ff16905092915050565b600080610e9683610977565b905080915050919050565b60007f01ffc9a7000000000000000000000000000000000000000000000000000000007bffffffffffffffffffffffffffffffffffffffffffffffffffffffff1916827bffffffffffffffffffffffffffffffffffffffffffffffffffffffff1916149050919050565b60008073ffffffffffffffffffffffffffffffffffffffff166002600084815260200190815260200160002060009054906101000a900473ffffffffffffffffffffffffffffffffffffffff1673ffffffffffffffffffffffffffffffffffffffff1614159050919050565b600033905090565b816004600083815260200190815260200160002060006101000a81548173ffffffffffffffffffffffffffffffffffffffff021916908373ffffffffffffffffffffffffffffffffffffffff160217905550808273ffffffffffffffffffffffffffffffffffffffff16610ff283610838565b73ffffffffffffffffffffffffffffffffffffffff167f8c5be1e5ebec7d5bd14f71427d1e84f3dd0314c0f7b2291e5b200ac8c7c3b92560405160405180910390a45050565b600061104382610f0b565b611082576040517f08c379a00000000000000000000000000000000000000000000000000000000081526004016110799061283f565b60405180910390fd5b600061108d83610838565b90508073ffffffffffffffffffffffffffffffffffffffff168473ffffffffffffffffffffffffffffffffffffffff1614806110fc57508373ffffffffffffffffffffffffffffffffffffffff166110e4846105c9565b73ffffffffffffffffffffffffffffffffffffffff16145b8061110d575061110c8185610df6565b5b91505092915050565b8273ffffffffffffffffffffffffffffffffffffffff1661113682610838565b73ffffffffffffffffffffffffffffffffffffffff161461118c576040517f08c379a0000000000000000000000000000000000000000000000000000000008152600401611183906128d1565b60405180910390fd5b600073ffffffffffffffffffffffffffffffffffffffff168273ffffffffffffffffffffffffffffffffffffffff1614156111fc576040517f08c379a00000000000000000000000000000000000000000000000000000000081526004016111f390612963565b60405180910390fd5b611207838383611542565b611212600082610f7f565b6001600360008573ffffffffffffffffffffffffffffffffffffffff1673ffffffffffffffffffffffffffffffffffffffff168152602001908152602001600020600082825461126291906129b2565b925050819055506001600360008473ffffffffffffffffffffffffffffffffffffffff1673ffffffffffffffffffffffffffffffffffffffff16815260200190815260200160002060008282546112b991906129e6565b92505081905550816002600083815260200190815260200160002060006101000a81548173ffffffffffffffffffffffffffffffffffffffff021916908373ffffffffffffffffffffffffffffffffffffffff160217905550808273ffffffffffffffffffffffffffffffffffffffff168473ffffffffffffffffffffffffffffffffffffffff167fddf252ad1be2c89b69c2b068fc378daa952ba7f163c4a11628f55a4df523b3ef60405160405180910390a4505050565b600081600001549050919050565b6001816000016000828254019250508190555050565b6113b0828260405180602001604052806000815250611547565b5050565b6113bd82610f0b565b6113fc576040517f08c379a00000000000000000000000000000000000000000000000000000000081526004016113f390612aae565b60405180910390fd5b80600660008481526020019081526020016000209080519060200190611423929190611a8e565b505050565b611433848484611116565b61143f848484846115a2565b61147e576040517f08c379a000000000000000000000000000000000000000000000000000000000815260040161147590612b40565b60405180910390fd5b50505050565b606060405180602001604052806000815250905090565b60606114a682610f0b565b6114e5576040517f08c379a00000000000000000000000000000000000000000000000000000000081526004016114dc90612bd2565b60405180910390fd5b60006114ef611484565b9050600081511161150f576040518060200160405280600081525061153a565b8061151984611739565b60405160200161152a9291906127a9565b6040516020818303038152906040525b915050919050565b505050565b611551838361189a565b61155e60008484846115a2565b61159d576040517f08c379a000000000000000000000000000000000000000000000000000000000815260040161159490612b40565b60405180910390fd5b505050565b60006115c38473ffffffffffffffffffffffffffffffffffffffff16611a68565b1561172c578373ffffffffffffffffffffffffffffffffffffffff1663150b7a026115ec610f77565b8786866040518563ffffffff1660e01b815260040161160e9493929190612c47565b602060405180830381600087803b15801561162857600080fd5b505af192505050801561165957506040513d601f19601f820116820180604052508101906116569190612ca8565b60015b6116dc573d8060008114611689576040519150601f19603f3d011682016040523d82523d6000602084013e61168e565b606091505b506000815114156116d4576040517f08c379a00000000000000000000000000000000000000000000000000000000081526004016116cb90612b40565b60405180910390fd5b805181602001fd5b63150b7a0260e01b7bffffffffffffffffffffffffffffffffffffffffffffffffffffffff1916817bffffffffffffffffffffffffffffffffffffffffffffffffffffffff191614915050611731565b600190505b949350505050565b60606000821415611781576040518060400160405280600181526020017f30000000000000000000000000000000000000000000000000000000000000008152509050611895565b600082905060005b600082146117b357808061179c90612cd5565b915050600a826117ac9190612d4d565b9150611789565b60008167ffffffffffffffff8111156117cf576117ce611ef4565b5b6040519080825280601f01601f1916602001820160405280156118015781602001600182028036833780820191505090505b5090505b6000851461188e5760018261181a91906129b2565b9150600a856118299190612d7e565b603061183591906129e6565b60f81b81838151811061184b5761184a612daf565b5b60200101907effffffffffffffffffffffffffffffffffffffffffffffffffffffffffffff1916908160001a905350600a856118879190612d4d565b9450611805565b8093505050505b919050565b600073ffffffffffffffffffffffffffffffffffffffff168273ffffffffffffffffffffffffffffffffffffffff16141561190a576040517f08c379a000000000000000000000000000000000000000000000000000000000815260040161190190612e2a565b60405180910390fd5b61191381610f0b565b15611953576040517f08c379a000000000000000000000000000000000000000000000000000000000815260040161194a90612e96565b60405180910390fd5b61195f60008383611542565b6001600360008473ffffffffffffffffffffffffffffffffffffffff1673ffffffffffffffffffffffffffffffffffffffff16815260200190815260200160002060008282546119af91906129e6565b92505081905550816002600083815260200190815260200160002060006101000a81548173ffffffffffffffffffffffffffffffffffffffff021916908373ffffffffffffffffffffffffffffffffffffffff160217905550808273ffffffffffffffffffffffffffffffffffffffff16600073ffffffffffffffffffffffffffffffffffffffff167fddf252ad1be2c89b69c2b068fc378daa952ba7f163c4a11628f55a4df523b3ef60405160405180910390a45050565b600080823b905060008111915050919050565b6040518060200160405280600081525090565b828054611a9a906122d1565b90600052602060002090601f016020900481019282611abc5760008555611b03565b82601f10611ad557805160ff1916838001178555611b03565b82800160010185558215611b03579182015b82811115611b02578251825591602001919060010190611ae7565b5b509050611b109190611b14565b5090565b5b80821115611b2d576000816000905550600101611b15565b5090565b6000604051905090565b600080fd5b600080fd5b60007fffffffff0000000000000000000000000000000000000000000000000000000082169050919050565b611b7a81611b45565b8114611b8557600080fd5b50565b600081359050611b9781611b71565b92915050565b600060208284031215611bb357611bb2611b3b565b5b6000611bc184828501611b88565b91505092915050565b60008115159050919050565b611bdf81611bca565b82525050565b6000602082019050611bfa6000830184611bd6565b92915050565b600081519050919050565b600082825260208201905092915050565b60005b83811015611c3a578082015181840152602081019050611c1f565b83811115611c49576000848401525b50505050565b6000601f19601f8301169050919050565b6000611c6b82611c00565b611c758185611c0b565b9350611c85818560208601611c1c565b611c8e81611c4f565b840191505092915050565b60006020820190508181036000830152611cb38184611c60565b905092915050565b6000819050919050565b611cce81611cbb565b8114611cd957600080fd5b50565b600081359050611ceb81611cc5565b92915050565b600060208284031215611d0757611d06611b3b565b5b6000611d1584828501611cdc565b91505092915050565b600073ffffffffffffffffffffffffffffffffffffffff82169050919050565b6000611d4982611d1e565b9050919050565b611d5981611d3e565b82525050565b6000602082019050611d746000830184611d50565b92915050565b611d8381611d3e565b8114611d8e57600080fd5b50565b600081359050611da081611d7a565b92915050565b60008060408385031215611dbd57611dbc611b3b565b5b6000611dcb85828601611d91565b9250506020611ddc85828601611cdc565b9150509250929050565b600080600060608486031215611dff57611dfe611b3b565b5b6000611e0d86828701611d91565b9350506020611e1e86828701611d91565b9250506040611e2f86828701611cdc565b9150509250925092565b6000611e4482611d1e565b9050919050565b611e5481611e39565b8114611e5f57600080fd5b50565b600081359050611e7181611e4b565b92915050565b600060208284031215611e8d57611e8c611b3b565b5b6000611e9b84828501611e62565b91505092915050565b611ead81611cbb565b82525050565b602082016000820151611ec96000850182611ea4565b50505050565b6000602082019050611ee46000830184611eb3565b92915050565b600080fd5b600080fd5b7f4e487b7100000000000000000000000000000000000000000000000000000000600052604160045260246000fd5b611f2c82611c4f565b810181811067ffffffffffffffff82111715611f4b57611f4a611ef4565b5b80604052505050565b6000611f5e611b31565b9050611f6a8282611f23565b919050565b600067ffffffffffffffff821115611f8a57611f89611ef4565b5b611f9382611c4f565b9050602081019050919050565b82818337600083830152505050565b6000611fc2611fbd84611f6f565b611f54565b905082815260208101848484011115611fde57611fdd611eef565b5b611fe9848285611fa0565b509392505050565b600082601f83011261200657612005611eea565b5b8135612016848260208601611faf565b91505092915050565b6000806040838503121561203657612035611b3b565b5b600061204485828601611d91565b925050602083013567ffffffffffffffff81111561206557612064611b40565b5b61207185828601611ff1565b9150509250929050565b61208481611cbb565b82525050565b600060208201905061209f600083018461207b565b92915050565b6000602082840312156120bb576120ba611b3b565b5b60006120c984828501611d91565b91505092915050565b6120db81611bca565b81146120e657600080fd5b50565b6000813590506120f8816120d2565b92915050565b6000806040838503121561211557612114611b3b565b5b600061212385828601611d91565b9250506020612134858286016120e9565b9150509250929050565b600067ffffffffffffffff82111561215957612158611ef4565b5b61216282611c4f565b9050602081019050919050565b600061218261217d8461213e565b611f54565b90508281526020810184848401111561219e5761219d611eef565b5b6121a9848285611fa0565b509392505050565b600082601f8301126121c6576121c5611eea565b5b81356121d684826020860161216f565b91505092915050565b600080600080608085870312156121f9576121f8611b3b565b5b600061220787828801611d91565b945050602061221887828801611d91565b935050604061222987828801611cdc565b925050606085013567ffffffffffffffff81111561224a57612249611b40565b5b612256878288016121b1565b91505092959194509250565b6000806040838503121561227957612278611b3b565b5b600061228785828601611d91565b925050602061229885828601611d91565b9150509250929050565b7f4e487b7100000000000000000000000000000000000000000000000000000000600052602260045260246000fd5b600060028204905060018216806122e957607f821691505b602082108114156122fd576122fc6122a2565b5b50919050565b7f4552433732313a20617070726f76656420717565727920666f72206e6f6e657860008201527f697374656e7420746f6b656e0000000000000000000000000000000000000000602082015250565b600061235f602c83611c0b565b915061236a82612303565b604082019050919050565b6000602082019050818103600083015261238e81612352565b9050919050565b7f4552433732313a20617070726f76616c20746f2063757272656e74206f776e6560008201527f7200000000000000000000000000000000000000000000000000000000000000602082015250565b60006123f1602183611c0b565b91506123fc82612395565b604082019050919050565b60006020820190508181036000830152612420816123e4565b9050919050565b7f4552433732313a20617070726f76652063616c6c6572206973206e6f74206f7760008201527f6e6572206e6f7220617070726f76656420666f7220616c6c0000000000000000602082015250565b6000612483603883611c0b565b915061248e82612427565b604082019050919050565b600060208201905081810360008301526124b281612476565b9050919050565b7f4552433732313a207472616e736665722063616c6c6572206973206e6f74206f60008201527f776e6572206e6f7220617070726f766564000000000000000000000000000000602082015250565b6000612515603183611c0b565b9150612520826124b9565b604082019050919050565b6000602082019050818103600083015261254481612508565b9050919050565b7f4552433732313a206f776e657220717565727920666f72206e6f6e657869737460008201527f656e7420746f6b656e0000000000000000000000000000000000000000000000602082015250565b60006125a7602983611c0b565b91506125b28261254b565b604082019050919050565b600060208201905081810360008301526125d68161259a565b9050919050565b7f4552433732313a2062616c616e636520717565727920666f7220746865207a6560008201527f726f206164647265737300000000000000000000000000000000000000000000602082015250565b6000612639602a83611c0b565b9150612644826125dd565b604082019050919050565b600060208201905081810360008301526126688161262c565b9050919050565b7f4552433732313a20617070726f766520746f2063616c6c657200000000000000600082015250565b60006126a5601983611c0b565b91506126b08261266f565b602082019050919050565b600060208201905081810360008301526126d481612698565b9050919050565b7f45524337323155524953746f726167653a2055524920717565727920666f722060008201527f6e6f6e6578697374656e7420746f6b656e000000000000000000000000000000602082015250565b6000612737603183611c0b565b9150612742826126db565b604082019050919050565b600060208201905081810360008301526127668161272a565b9050919050565b600081905092915050565b600061278382611c00565b61278d818561276d565b935061279d818560208601611c1c565b80840191505092915050565b60006127b58285612778565b91506127c18284612778565b91508190509392505050565b7f4552433732313a206f70657261746f7220717565727920666f72206e6f6e657860008201527f697374656e7420746f6b656e0000000000000000000000000000000000000000602082015250565b6000612829602c83611c0b565b9150612834826127cd565b604082019050919050565b600060208201905081810360008301526128588161281c565b9050919050565b7f4552433732313a207472616e73666572206f6620746f6b656e2074686174206960008201527f73206e6f74206f776e0000000000000000000000000000000000000000000000602082015250565b60006128bb602983611c0b565b91506128c68261285f565b604082019050919050565b600060208201905081810360008301526128ea816128ae565b9050919050565b7f4552433732313a207472616e7366657220746f20746865207a65726f2061646460008201527f7265737300000000000000000000000000000000000000000000000000000000602082015250565b600061294d602483611c0b565b9150612958826128f1565b604082019050919050565b6000602082019050818103600083015261297c81612940565b9050919050565b7f4e487b7100000000000000000000000000000000000000000000000000000000600052601160045260246000fd5b60006129bd82611cbb565b91506129c883611cbb565b9250828210156129db576129da612983565b5b828203905092915050565b60006129f182611cbb565b91506129fc83611cbb565b9250827fffffffffffffffffffffffffffffffffffffffffffffffffffffffffffffffff03821115612a3157612a30612983565b5b828201905092915050565b7f45524337323155524953746f726167653a2055524920736574206f66206e6f6e60008201527f6578697374656e7420746f6b656e000000000000000000000000000000000000602082015250565b6000612a98602e83611c0b565b9150612aa382612a3c565b604082019050919050565b60006020820190508181036000830152612ac781612a8b565b9050919050565b7f4552433732313a207472616e7366657220746f206e6f6e20455243373231526560008201527f63656976657220696d706c656d656e7465720000000000000000000000000000602082015250565b6000612b2a603283611c0b565b9150612b3582612ace565b604082019050919050565b60006020820190508181036000830152612b5981612b1d565b9050919050565b7f4552433732314d657461646174613a2055524920717565727920666f72206e6f60008201527f6e6578697374656e7420746f6b656e0000000000000000000000000000000000602082015250565b6000612bbc602f83611c0b565b9150612bc782612b60565b604082019050919050565b60006020820190508181036000830152612beb81612baf565b9050919050565b600081519050919050565b600082825260208201905092915050565b6000612c1982612bf2565b612c238185612bfd565b9350612c33818560208601611c1c565b612c3c81611c4f565b840191505092915050565b6000608082019050612c5c6000830187611d50565b612c696020830186611d50565b612c76604083018561207b565b8181036060830152612c888184612c0e565b905095945050505050565b600081519050612ca281611b71565b92915050565b600060208284031215612cbe57612cbd611b3b565b5b6000612ccc84828501612c93565b91505092915050565b6000612ce082611cbb565b91507fffffffffffffffffffffffffffffffffffffffffffffffffffffffffffffffff821415612d1357612d12612983565b5b600182019050919050565b7f4e487b7100000000000000000000000000000000000000000000000000000000600052601260045260246000fd5b6000612d5882611cbb565b9150612d6383611cbb565b925082612d7357612d72612d1e565b5b828204905092915050565b6000612d8982611cbb565b9150612d9483611cbb565b925082612da457612da3612d1e565b5b828206905092915050565b7f4e487b7100000000000000000000000000000000000000000000000000000000600052603260045260246000fd5b7f4552433732313a206d696e7420746f20746865207a65726f2061646472657373600082015250565b6000612e14602083611c0b565b9150612e1f82612dde565b602082019050919050565b60006020820190508181036000830152612e4381612e07565b9050919050565b7f4552433732313a20746f6b656e20616c7265616479206d696e74656400000000600082015250565b6000612e80601c83611c0b565b9150612e8b82612e4a565b602082019050919050565b60006020820190508181036000830152612eaf81612e73565b905091905056fea2646970667358221220eb0af0aa576d1eab86229dd559aef343f55505b401c3361fbd53fc421600935564736f6c63430008090033",
  "immutableReferences": {},
  "source": "// contracts/GameItem.sol\r\n// SPDX-License-Identifier: MIT\r\npragma solidity ^0.8.0;\r\n\r\nimport \"@openzeppelin/contracts/token/ERC721/extensions/ERC721URIStorage.sol\";\r\nimport \"@openzeppelin/contracts/token/ERC721/ERC721.sol\";\r\nimport \"@openzeppelin/contracts/utils/Counters.sol\";\r\n\r\ncontract PictureLicense is ERC721URIStorage {\r\n    using Counters for Counters.Counter;\r\n    Counters.Counter private _tokenIds;\r\n    \r\n    constructor() ERC721(\"PictureLicense\", \"LCS\") {}\r\n\r\n    function awardLicense(address newOwnerAdress, string memory tokenURI)\r\n        public payable\r\n        returns (uint256)\r\n    {\r\n        if(_tokenIds.current() < 2){ //ak je tokenov menej ako 2, tak mome vytvara nove tokeny (NFT)\r\n        require(msg.value >= 1 ether); //zaplatenie 1 etherea\r\n        _tokenIds.increment();\r\n\r\n        uint256 newItemId = _tokenIds.current();\r\n        _safeMint(newOwnerAdress, newItemId); //sli ako transfer, ak u tokenID existuje, tak nevytvor nov token(neprid daliu licenciu tomu kto ju u ma)\r\n        _setTokenURI(newItemId, tokenURI);\r\n        \r\n\r\n        return newItemId;\r\n        }\r\n        else{ \r\n            return 0;}\r\n    }\r\n\r\n    function getTokenIds() view external returns(Counters.Counter memory) {\r\n\r\n        return _tokenIds;\r\n    }\r\n    function getBalance(address newOwnerAdress) view external returns(uint256) {\r\n\r\n        uint256 balance = balanceOf(newOwnerAdress);\r\n        return balance;\r\n    }\r\n    \r\n    address payable[] recipients;\r\n    function sendEther(address payable recipient) external {\r\n        recipient.transfer(1 ether);\r\n        //1 ether zo smart contractu na adresu recipienta\r\n    }\r\n\r\n}",
  "sourcePath": "C:\\Users\\tomik\\Desktop\\Skola\\Diplomova Praca\\VSCsol\\contracts\\MyToken.sol",
  "compiler": {
    "name": "solc",
    "version": "0.8.9+commit.e5eed63a.Emscripten.clang"
  },
  "schemaVersion": "3.4.3",
  "updatedAt": "2022-03-20T14:02:43.640Z",
  "networkType": "ethereum",
  "devdoc": {
    "kind": "dev",
    "methods": {
      "approve(address,uint256)": {
        "details": "See {IERC721-approve}."
      },
      "balanceOf(address)": {
        "details": "See {IERC721-balanceOf}."
      },
      "getApproved(uint256)": {
        "details": "See {IERC721-getApproved}."
      },
      "isApprovedForAll(address,address)": {
        "details": "See {IERC721-isApprovedForAll}."
      },
      "name()": {
        "details": "See {IERC721Metadata-name}."
      },
      "ownerOf(uint256)": {
        "details": "See {IERC721-ownerOf}."
      },
      "safeTransferFrom(address,address,uint256)": {
        "details": "See {IERC721-safeTransferFrom}."
      },
      "safeTransferFrom(address,address,uint256,bytes)": {
        "details": "See {IERC721-safeTransferFrom}."
      },
      "setApprovalForAll(address,bool)": {
        "details": "See {IERC721-setApprovalForAll}."
      },
      "supportsInterface(bytes4)": {
        "details": "See {IERC165-supportsInterface}."
      },
      "symbol()": {
        "details": "See {IERC721Metadata-symbol}."
      },
      "tokenURI(uint256)": {
        "details": "See {IERC721Metadata-tokenURI}."
      },
      "transferFrom(address,address,uint256)": {
        "details": "See {IERC721-transferFrom}."
      }
    },
    "version": 1
  },
  "userdoc": {
    "kind": "user",
    "methods": {},
    "version": 1
  }
}