{
  "contractName": "SimplePaymentChannel",
  "abi": [
    {
      "inputs": [
        {
          "internalType": "address payable",
          "name": "_recipient",
          "type": "address"
        },
        {
          "internalType": "uint256",
          "name": "duration",
          "type": "uint256"
        }
      ],
      "stateMutability": "payable",
      "type": "constructor",
      "payable": true
    },
    {
      "inputs": [],
      "name": "data",
      "outputs": [
        {
          "internalType": "string",
          "name": "",
          "type": "string"
        }
      ],
      "stateMutability": "view",
      "type": "function",
      "constant": true
    },
    {
      "inputs": [],
      "name": "expiration",
      "outputs": [
        {
          "internalType": "uint256",
          "name": "",
          "type": "uint256"
        }
      ],
      "stateMutability": "view",
      "type": "function",
      "constant": true
    },
    {
      "inputs": [],
      "name": "recipient",
      "outputs": [
        {
          "internalType": "address payable",
          "name": "",
          "type": "address"
        }
      ],
      "stateMutability": "view",
      "type": "function",
      "constant": true
    },
    {
      "inputs": [],
      "name": "sender",
      "outputs": [
        {
          "internalType": "address payable",
          "name": "",
          "type": "address"
        }
      ],
      "stateMutability": "view",
      "type": "function",
      "constant": true
    },
    {
      "inputs": [
        {
          "internalType": "uint256",
          "name": "amount",
          "type": "uint256"
        },
        {
          "internalType": "bytes",
          "name": "signature",
          "type": "bytes"
        }
      ],
      "name": "close",
      "outputs": [],
      "stateMutability": "nonpayable",
      "type": "function"
    },
    {
      "inputs": [
        {
          "internalType": "uint256",
          "name": "newExpiration",
          "type": "uint256"
        }
      ],
      "name": "extend",
      "outputs": [],
      "stateMutability": "nonpayable",
      "type": "function"
    },
    {
      "inputs": [],
      "name": "claimTimeout",
      "outputs": [],
      "stateMutability": "nonpayable",
      "type": "function"
    },
    {
      "inputs": [],
      "name": "TestPayment",
      "outputs": [
        {
          "internalType": "string",
          "name": "",
          "type": "string"
        }
      ],
      "stateMutability": "payable",
      "type": "function",
      "payable": true
    },
    {
      "inputs": [
        {
          "internalType": "string",
          "name": "_data",
          "type": "string"
        }
      ],
      "name": "setData",
      "outputs": [],
      "stateMutability": "nonpayable",
      "type": "function"
    },
    {
      "inputs": [],
      "name": "getData",
      "outputs": [
        {
          "internalType": "string",
          "name": "",
          "type": "string"
        }
      ],
      "stateMutability": "view",
      "type": "function",
      "constant": true
    }
  ],
  "bytecode": "0x60806040526040516200109f3803806200109f83398181016040528101906200002991906200016b565b336000806101000a81548173ffffffffffffffffffffffffffffffffffffffff021916908373ffffffffffffffffffffffffffffffffffffffff16021790555081600160006101000a81548173ffffffffffffffffffffffffffffffffffffffff021916908373ffffffffffffffffffffffffffffffffffffffff1602179055508042620000b89190620001e1565b60028190555050506200023e565b600080fd5b600073ffffffffffffffffffffffffffffffffffffffff82169050919050565b6000620000f882620000cb565b9050919050565b6200010a81620000eb565b81146200011657600080fd5b50565b6000815190506200012a81620000ff565b92915050565b6000819050919050565b620001458162000130565b81146200015157600080fd5b50565b60008151905062000165816200013a565b92915050565b60008060408385031215620001855762000184620000c6565b5b6000620001958582860162000119565b9250506020620001a88582860162000154565b9150509250929050565b7f4e487b7100000000000000000000000000000000000000000000000000000000600052601160045260246000fd5b6000620001ee8262000130565b9150620001fb8362000130565b9250827fffffffffffffffffffffffffffffffffffffffffffffffffffffffffffffffff03821115620002335762000232620001b2565b5b828201905092915050565b610e51806200024e6000396000f3fe6080604052600436106100915760003560e01c806350f95a051161005957806350f95a051461015557806366d003ac1461017357806367e404ce1461019e57806373d4a13a146101c95780639714378c146101f457610091565b80630e1da6c3146100965780633bc5de30146100ad578063415ffba7146100d85780634665096d1461010157806347064d6a1461012c575b600080fd5b3480156100a257600080fd5b506100ab61021d565b005b3480156100b957600080fd5b506100c2610265565b6040516100cf9190610860565b60405180910390f35b3480156100e457600080fd5b506100ff60048036038101906100fa9190610a01565b6102f7565b005b34801561010d57600080fd5b50610116610406565b6040516101239190610a6c565b60405180910390f35b34801561013857600080fd5b50610153600480360381019061014e9190610ae7565b61040c565b005b61015d610422565b60405161016a9190610860565b60405180910390f35b34801561017f57600080fd5b50610188610474565b6040516101959190610b75565b60405180910390f35b3480156101aa57600080fd5b506101b361049a565b6040516101c09190610b75565b60405180910390f35b3480156101d557600080fd5b506101de6104be565b6040516101eb9190610860565b60405180910390f35b34801561020057600080fd5b5061021b60048036038101906102169190610b90565b61054c565b005b60025442101561022c57600080fd5b60008054906101000a900473ffffffffffffffffffffffffffffffffffffffff1673ffffffffffffffffffffffffffffffffffffffff16ff5b60606003805461027490610bec565b80601f01602080910402602001604051908101604052809291908181526020018280546102a090610bec565b80156102ed5780601f106102c2576101008083540402835291602001916102ed565b820191906000526020600020905b8154815290600101906020018083116102d057829003601f168201915b5050505050905090565b600160009054906101000a900473ffffffffffffffffffffffffffffffffffffffff1673ffffffffffffffffffffffffffffffffffffffff163373ffffffffffffffffffffffffffffffffffffffff161461035157600080fd5b61035b82826105bc565b61036457600080fd5b600160009054906101000a900473ffffffffffffffffffffffffffffffffffffffff1673ffffffffffffffffffffffffffffffffffffffff166108fc839081150290604051600060405180830381858888f193505050501580156103cc573d6000803e3d6000fd5b5060008054906101000a900473ffffffffffffffffffffffffffffffffffffffff1673ffffffffffffffffffffffffffffffffffffffff16ff5b60025481565b81816003919061041d929190610724565b505050565b6060670de0b6b3a764000034101561043957600080fd5b6040518060400160405280601281526020017f506c61746261207072656265686c612121210000000000000000000000000000815250905090565b600160009054906101000a900473ffffffffffffffffffffffffffffffffffffffff1681565b60008054906101000a900473ffffffffffffffffffffffffffffffffffffffff1681565b600380546104cb90610bec565b80601f01602080910402602001604051908101604052809291908181526020018280546104f790610bec565b80156105445780601f1061051957610100808354040283529160200191610544565b820191906000526020600020905b81548152906001019060200180831161052757829003601f168201915b505050505081565b60008054906101000a900473ffffffffffffffffffffffffffffffffffffffff1673ffffffffffffffffffffffffffffffffffffffff163373ffffffffffffffffffffffffffffffffffffffff16146105a457600080fd5b60025481116105b257600080fd5b8060028190555050565b6000806105f030856040516020016105d5929190610cd7565b60405160208183030381529060405280519060200120610653565b905060008054906101000a900473ffffffffffffffffffffffffffffffffffffffff1673ffffffffffffffffffffffffffffffffffffffff166106338285610683565b73ffffffffffffffffffffffffffffffffffffffff161491505092915050565b6000816040516020016106669190610d85565b604051602081830303815290604052805190602001209050919050565b600080600080610692856106f2565b925092509250600186848484604051600081526020016040526040516106bb9493929190610dd6565b6020604051602081039080840390855afa1580156106dd573d6000803e3d6000fd5b50505060206040510351935050505092915050565b6000806000604184511461070557600080fd5b6020840151915060408401519050606084015160001a92509193909250565b82805461073090610bec565b90600052602060002090601f0160209004810192826107525760008555610799565b82601f1061076b57803560ff1916838001178555610799565b82800160010185558215610799579182015b8281111561079857823582559160200191906001019061077d565b5b5090506107a691906107aa565b5090565b5b808211156107c35760008160009055506001016107ab565b5090565b600081519050919050565b600082825260208201905092915050565b60005b838110156108015780820151818401526020810190506107e6565b83811115610810576000848401525b50505050565b6000601f19601f8301169050919050565b6000610832826107c7565b61083c81856107d2565b935061084c8185602086016107e3565b61085581610816565b840191505092915050565b6000602082019050818103600083015261087a8184610827565b905092915050565b6000604051905090565b600080fd5b600080fd5b6000819050919050565b6108a981610896565b81146108b457600080fd5b50565b6000813590506108c6816108a0565b92915050565b600080fd5b600080fd5b7f4e487b7100000000000000000000000000000000000000000000000000000000600052604160045260246000fd5b61090e82610816565b810181811067ffffffffffffffff8211171561092d5761092c6108d6565b5b80604052505050565b6000610940610882565b905061094c8282610905565b919050565b600067ffffffffffffffff82111561096c5761096b6108d6565b5b61097582610816565b9050602081019050919050565b82818337600083830152505050565b60006109a461099f84610951565b610936565b9050828152602081018484840111156109c0576109bf6108d1565b5b6109cb848285610982565b509392505050565b600082601f8301126109e8576109e76108cc565b5b81356109f8848260208601610991565b91505092915050565b60008060408385031215610a1857610a1761088c565b5b6000610a26858286016108b7565b925050602083013567ffffffffffffffff811115610a4757610a46610891565b5b610a53858286016109d3565b9150509250929050565b610a6681610896565b82525050565b6000602082019050610a816000830184610a5d565b92915050565b600080fd5b600080fd5b60008083601f840112610aa757610aa66108cc565b5b8235905067ffffffffffffffff811115610ac457610ac3610a87565b5b602083019150836001820283011115610ae057610adf610a8c565b5b9250929050565b60008060208385031215610afe57610afd61088c565b5b600083013567ffffffffffffffff811115610b1c57610b1b610891565b5b610b2885828601610a91565b92509250509250929050565b600073ffffffffffffffffffffffffffffffffffffffff82169050919050565b6000610b5f82610b34565b9050919050565b610b6f81610b54565b82525050565b6000602082019050610b8a6000830184610b66565b92915050565b600060208284031215610ba657610ba561088c565b5b6000610bb4848285016108b7565b91505092915050565b7f4e487b7100000000000000000000000000000000000000000000000000000000600052602260045260246000fd5b60006002820490506001821680610c0457607f821691505b60208210811415610c1857610c17610bbd565b5b50919050565b6000819050919050565b6000610c43610c3e610c3984610b34565b610c1e565b610b34565b9050919050565b6000610c5582610c28565b9050919050565b6000610c6782610c4a565b9050919050565b60008160601b9050919050565b6000610c8682610c6e565b9050919050565b6000610c9882610c7b565b9050919050565b610cb0610cab82610c5c565b610c8d565b82525050565b6000819050919050565b610cd1610ccc82610896565b610cb6565b82525050565b6000610ce38285610c9f565b601482019150610cf38284610cc0565b6020820191508190509392505050565b600081905092915050565b7f19457468657265756d205369676e6564204d6573736167653a0a333200000000600082015250565b6000610d44601c83610d03565b9150610d4f82610d0e565b601c82019050919050565b6000819050919050565b6000819050919050565b610d7f610d7a82610d5a565b610d64565b82525050565b6000610d9082610d37565b9150610d9c8284610d6e565b60208201915081905092915050565b610db481610d5a565b82525050565b600060ff82169050919050565b610dd081610dba565b82525050565b6000608082019050610deb6000830187610dab565b610df86020830186610dc7565b610e056040830185610dab565b610e126060830184610dab565b9594505050505056fea2646970667358221220d8a856666a3871551ecf051886d6d4ee95f25a703d4bd436b107f3146a34801564736f6c63430008090033",
  "immutableReferences": {},
  "source": "// SPDX-License-Identifier: MIT\r\npragma solidity 0.8.9;\r\n\r\nimport \"@openzeppelin/contracts/token/ERC721/IERC721.sol\";\r\nimport \"@openzeppelin/contracts/token/ERC721/extensions/ERC721URIStorage.sol\";\r\n\r\ncontract SimplePaymentChannel {\r\n    address payable public sender;      // The account sending payments.\r\n    address payable public recipient;   // The account receiving the payments.\r\n    uint256 public expiration;  // Timeout in case the recipient never closes.\r\n    string public data;\r\n\r\n    constructor (address payable _recipient, uint256 duration) \r\n    public \r\n    payable \r\n    {\r\n        sender = payable(msg.sender); //sender = msg.sender;\r\n        recipient = _recipient;\r\n        //expiration = now + duration;\r\n        expiration = block.timestamp + duration;\r\n    }\r\n\r\n    function isValidSignature(uint256 amount, bytes memory signature)\r\n    internal\r\n    view\r\n    returns (bool)\r\n    {\r\n        bytes32 message = prefixed(keccak256(abi.encodePacked(this, amount)));\r\n\r\n        // check that the signature is from the payment sender\r\n        return recoverSigner(message, signature) == sender;\r\n    }\r\n\r\n    /// the recipient can close the channel at any time by presenting a\r\n    /// signed amount from the sender. the recipient will be sent that amount,\r\n    /// and the remainder will go back to the sender\r\n    function close(uint256 amount, bytes memory signature) public {\r\n        require(msg.sender == recipient);\r\n        require(isValidSignature(amount, signature));\r\n\r\n        recipient.transfer(amount);\r\n        selfdestruct(sender);\r\n    }\r\n\r\n    /// the sender can extend the expiration at any time\r\n    function extend(uint256 newExpiration) public {\r\n        require(msg.sender == sender);\r\n        require(newExpiration > expiration);\r\n\r\n        expiration = newExpiration;\r\n    }\r\n\r\n    /// if the timeout is reached without the recipient closing the channel,\r\n    /// then the Ether is released back to the sender.\r\n    function claimTimeout() public {\r\n        require(block.timestamp >= expiration); //require(now >= expiration);\r\n        selfdestruct(sender);\r\n    }\r\n\r\n    /// All functions below this are just taken from the chapter\r\n    /// 'creating and verifying signatures' chapter.\r\n\r\n    function splitSignature(bytes memory sig)\r\n    internal\r\n    pure\r\n    returns (uint8 v, bytes32 r, bytes32 s)\r\n    {\r\n        require(sig.length == 65);\r\n\r\n        assembly {\r\n        // first 32 bytes, after the length prefix\r\n            r := mload(add(sig, 32))\r\n        // second 32 bytes\r\n            s := mload(add(sig, 64))\r\n        // final byte (first byte of the next 32 bytes)\r\n            v := byte(0, mload(add(sig, 96)))\r\n        }\r\n\r\n        return (v, r, s);\r\n    }\r\n\r\n    function recoverSigner(bytes32 message, bytes memory sig)\r\n    internal\r\n    pure\r\n    returns (address)\r\n    {\r\n        (uint8 v, bytes32 r, bytes32 s) = splitSignature(sig);\r\n\r\n        return ecrecover(message, v, r, s);\r\n    }\r\n\r\n    /// builds a prefixed hash to mimic the behavior of eth_sign.\r\n    function prefixed(bytes32 hash) internal pure returns (bytes32) {\r\n        return keccak256(abi.encodePacked(\"\\x19Ethereum Signed Message:\\n32\", hash));\r\n    }\r\n\r\n    function TestPayment() public payable returns(string memory) {\r\n        require(msg.value >= 1 ether);\r\n        return \"Platba prebehla!!!\";\r\n\r\n    }\r\n\r\n    function setData(string calldata _data) external\r\n    {\r\n        data = _data;\r\n    }\r\n\r\n    function getData() view external returns(string memory) {\r\n\r\n        return data;\r\n    }\r\n\r\n    \r\n}",
  "sourcePath": "C:\\Users\\tomik\\Desktop\\Skola\\Diplomova Praca\\VSCsol\\contracts\\test.sol",
  "compiler": {
    "name": "solc",
    "version": "0.8.9+commit.e5eed63a.Emscripten.clang"
  },
  "schemaVersion": "3.4.3",
  "updatedAt": "2022-03-20T14:02:40.894Z",
  "networkType": "ethereum",
  "devdoc": {
    "kind": "dev",
    "methods": {},
    "version": 1
  },
  "userdoc": {
    "kind": "user",
    "methods": {
      "claimTimeout()": {
        "notice": "if the timeout is reached without the recipient closing the channel, then the Ether is released back to the sender."
      },
      "close(uint256,bytes)": {
        "notice": "the recipient can close the channel at any time by presenting a signed amount from the sender. the recipient will be sent that amount, and the remainder will go back to the sender"
      },
      "extend(uint256)": {
        "notice": "the sender can extend the expiration at any time"
      }
    },
    "version": 1
  }
}